{
	"TestMapping.sol": {
		"TestMapping": {
			"abi": [
				{
					"inputs": [
						{
							"internalType": "uint256",
							"name": "",
							"type": "uint256"
						}
					],
					"name": "m1",
					"outputs": [
						{
							"internalType": "bool",
							"name": "",
							"type": "bool"
						}
					],
					"stateMutability": "view",
					"type": "function"
				},
				{
					"inputs": [
						{
							"internalType": "address",
							"name": "",
							"type": "address"
						}
					],
					"name": "m2",
					"outputs": [
						{
							"internalType": "bool",
							"name": "",
							"type": "bool"
						}
					],
					"stateMutability": "view",
					"type": "function"
				},
				{
					"inputs": [],
					"name": "setA1ToTrue",
					"outputs": [],
					"stateMutability": "nonpayable",
					"type": "function"
				},
				{
					"inputs": [],
					"name": "setM2ToTrue",
					"outputs": [],
					"stateMutability": "nonpayable",
					"type": "function"
				},
				{
					"inputs": [
						{
							"internalType": "uint256",
							"name": "_key",
							"type": "uint256"
						}
					],
					"name": "setValueM1",
					"outputs": [],
					"stateMutability": "nonpayable",
					"type": "function"
				}
			],
			"devdoc": {
				"kind": "dev",
				"methods": {},
				"version": 1
			},
			"evm": {
				"assembly": "    /* \"TestMapping.sol\":27:443  contract TestMapping\r... */\n  mstore(0x40, 0x80)\n    /* \"TestMapping.sol\":66:71  false */\n  0x00\n    /* \"TestMapping.sol\":56:71  bool a1 = false */\n  dup1\n  exp(0x0100, 0x00)\n  dup2\n  sload\n  dup2\n  0xff\n  mul\n  not\n  and\n  swap1\n  dup4\n  iszero\n  iszero\n  mul\n  or\n  swap1\n  sstore\n  pop\n    /* \"TestMapping.sol\":88:93  false */\n  0x00\n    /* \"TestMapping.sol\":78:93  bool a2 = false */\n  dup1\n  exp(0x0100, 0x01)\n  dup2\n  sload\n  dup2\n  0xff\n  mul\n  not\n  and\n  swap1\n  dup4\n  iszero\n  iszero\n  mul\n  or\n  swap1\n  sstore\n  pop\n    /* \"TestMapping.sol\":110:115  false */\n  0x00\n    /* \"TestMapping.sol\":100:115  bool a3 = false */\n  dup1\n  exp(0x0100, 0x02)\n  dup2\n  sload\n  dup2\n  0xff\n  mul\n  not\n  and\n  swap1\n  dup4\n  iszero\n  iszero\n  mul\n  or\n  swap1\n  sstore\n  pop\n    /* \"TestMapping.sol\":27:443  contract TestMapping\r... */\n  callvalue\n  dup1\n  iszero\n  tag_1\n  jumpi\n  0x00\n  dup1\n  revert\ntag_1:\n  pop\n  dataSize(sub_0)\n  dup1\n  dataOffset(sub_0)\n  0x00\n  codecopy\n  0x00\n  return\nstop\n\nsub_0: assembly {\n        /* \"TestMapping.sol\":27:443  contract TestMapping\r... */\n      mstore(0x40, 0x80)\n      callvalue\n      dup1\n      iszero\n      tag_1\n      jumpi\n      0x00\n      dup1\n      revert\n    tag_1:\n      pop\n      jumpi(tag_2, lt(calldatasize, 0x04))\n      shr(0xe0, calldataload(0x00))\n      dup1\n      0x2ae42686\n      eq\n      tag_3\n      jumpi\n      dup1\n      0x89656cce\n      eq\n      tag_4\n      jumpi\n      dup1\n      0x8b438543\n      eq\n      tag_5\n      jumpi\n      dup1\n      0xc8cbc926\n      eq\n      tag_6\n      jumpi\n      dup1\n      0xffc90b5e\n      eq\n      tag_7\n      jumpi\n    tag_2:\n      0x00\n      dup1\n      revert\n        /* \"TestMapping.sol\":124:156  mapping (uint => bool) public m1 */\n    tag_3:\n      tag_8\n      0x04\n      dup1\n      calldatasize\n      sub\n      dup2\n      add\n      swap1\n      tag_9\n      swap2\n      swap1\n      tag_10\n      jump\t// in\n    tag_9:\n      tag_11\n      jump\t// in\n    tag_8:\n      mload(0x40)\n      tag_12\n      swap2\n      swap1\n      tag_13\n      jump\t// in\n    tag_12:\n      mload(0x40)\n      dup1\n      swap2\n      sub\n      swap1\n      return\n        /* \"TestMapping.sol\":365:440  function setM2ToTrue() public\r... */\n    tag_4:\n      tag_14\n      tag_15\n      jump\t// in\n    tag_14:\n      stop\n        /* \"TestMapping.sol\":209:286  function setValueM1(uint _key) public\r... */\n    tag_5:\n      tag_16\n      0x04\n      dup1\n      calldatasize\n      sub\n      dup2\n      add\n      swap1\n      tag_17\n      swap2\n      swap1\n      tag_10\n      jump\t// in\n    tag_17:\n      tag_18\n      jump\t// in\n    tag_16:\n      stop\n        /* \"TestMapping.sol\":165:200  mapping (address => bool) public m2 */\n    tag_6:\n      tag_19\n      0x04\n      dup1\n      calldatasize\n      sub\n      dup2\n      add\n      swap1\n      tag_20\n      swap2\n      swap1\n      tag_21\n      jump\t// in\n    tag_20:\n      tag_22\n      jump\t// in\n    tag_19:\n      mload(0x40)\n      tag_23\n      swap2\n      swap1\n      tag_13\n      jump\t// in\n    tag_23:\n      mload(0x40)\n      dup1\n      swap2\n      sub\n      swap1\n      return\n        /* \"TestMapping.sol\":294:357  function setA1ToTrue() public\r... */\n    tag_7:\n      tag_24\n      tag_25\n      jump\t// in\n    tag_24:\n      stop\n        /* \"TestMapping.sol\":124:156  mapping (uint => bool) public m1 */\n    tag_11:\n      mstore(0x20, 0x01)\n      dup1\n      0x00\n      mstore\n      keccak256(0x00, 0x40)\n      0x00\n      swap2\n      pop\n      sload\n      swap1\n      0x0100\n      exp\n      swap1\n      div\n      0xff\n      and\n      dup2\n      jump\t// out\n        /* \"TestMapping.sol\":365:440  function setM2ToTrue() public\r... */\n    tag_15:\n        /* \"TestMapping.sol\":428:432  true */\n      0x01\n        /* \"TestMapping.sol\":411:413  m2 */\n      0x02\n        /* \"TestMapping.sol\":411:425  m2[msg.sender] */\n      0x00\n        /* \"TestMapping.sol\":414:424  msg.sender */\n      caller\n        /* \"TestMapping.sol\":411:425  m2[msg.sender] */\n      0xffffffffffffffffffffffffffffffffffffffff\n      and\n      0xffffffffffffffffffffffffffffffffffffffff\n      and\n      dup2\n      mstore\n      0x20\n      add\n      swap1\n      dup2\n      mstore\n      0x20\n      add\n      0x00\n      keccak256\n      0x00\n        /* \"TestMapping.sol\":411:432  m2[msg.sender] = true */\n      0x0100\n      exp\n      dup2\n      sload\n      dup2\n      0xff\n      mul\n      not\n      and\n      swap1\n      dup4\n      iszero\n      iszero\n      mul\n      or\n      swap1\n      sstore\n      pop\n        /* \"TestMapping.sol\":365:440  function setM2ToTrue() public\r... */\n      jump\t// out\n        /* \"TestMapping.sol\":209:286  function setValueM1(uint _key) public\r... */\n    tag_18:\n        /* \"TestMapping.sol\":274:278  true */\n      0x01\n        /* \"TestMapping.sol\":263:265  m1 */\n      dup1\n        /* \"TestMapping.sol\":263:271  m1[_key] */\n      0x00\n        /* \"TestMapping.sol\":266:270  _key */\n      dup4\n        /* \"TestMapping.sol\":263:271  m1[_key] */\n      dup2\n      mstore\n      0x20\n      add\n      swap1\n      dup2\n      mstore\n      0x20\n      add\n      0x00\n      keccak256\n      0x00\n        /* \"TestMapping.sol\":263:278  m1[_key] = true */\n      0x0100\n      exp\n      dup2\n      sload\n      dup2\n      0xff\n      mul\n      not\n      and\n      swap1\n      dup4\n      iszero\n      iszero\n      mul\n      or\n      swap1\n      sstore\n      pop\n        /* \"TestMapping.sol\":209:286  function setValueM1(uint _key) public\r... */\n      pop\n      jump\t// out\n        /* \"TestMapping.sol\":165:200  mapping (address => bool) public m2 */\n    tag_22:\n      mstore(0x20, 0x02)\n      dup1\n      0x00\n      mstore\n      keccak256(0x00, 0x40)\n      0x00\n      swap2\n      pop\n      sload\n      swap1\n      0x0100\n      exp\n      swap1\n      div\n      0xff\n      and\n      dup2\n      jump\t// out\n        /* \"TestMapping.sol\":294:357  function setA1ToTrue() public\r... */\n    tag_25:\n        /* \"TestMapping.sol\":345:349  true */\n      0x01\n        /* \"TestMapping.sol\":340:342  a1 */\n      0x00\n      dup1\n        /* \"TestMapping.sol\":340:349  a1 = true */\n      0x0100\n      exp\n      dup2\n      sload\n      dup2\n      0xff\n      mul\n      not\n      and\n      swap1\n      dup4\n      iszero\n      iszero\n      mul\n      or\n      swap1\n      sstore\n      pop\n        /* \"TestMapping.sol\":294:357  function setA1ToTrue() public\r... */\n      jump\t// out\n        /* \"#utility.yul\":7:146   */\n    tag_30:\n        /* \"#utility.yul\":53:58   */\n      0x00\n        /* \"#utility.yul\":91:97   */\n      dup2\n        /* \"#utility.yul\":78:98   */\n      calldataload\n        /* \"#utility.yul\":69:98   */\n      swap1\n      pop\n        /* \"#utility.yul\":107:140   */\n      tag_32\n        /* \"#utility.yul\":134:139   */\n      dup2\n        /* \"#utility.yul\":107:140   */\n      tag_33\n      jump\t// in\n    tag_32:\n        /* \"#utility.yul\":7:146   */\n      swap3\n      swap2\n      pop\n      pop\n      jump\t// out\n        /* \"#utility.yul\":152:291   */\n    tag_34:\n        /* \"#utility.yul\":198:203   */\n      0x00\n        /* \"#utility.yul\":236:242   */\n      dup2\n        /* \"#utility.yul\":223:243   */\n      calldataload\n        /* \"#utility.yul\":214:243   */\n      swap1\n      pop\n        /* \"#utility.yul\":252:285   */\n      tag_36\n        /* \"#utility.yul\":279:284   */\n      dup2\n        /* \"#utility.yul\":252:285   */\n      tag_37\n      jump\t// in\n    tag_36:\n        /* \"#utility.yul\":152:291   */\n      swap3\n      swap2\n      pop\n      pop\n      jump\t// out\n        /* \"#utility.yul\":297:626   */\n    tag_21:\n        /* \"#utility.yul\":356:362   */\n      0x00\n        /* \"#utility.yul\":405:407   */\n      0x20\n        /* \"#utility.yul\":393:402   */\n      dup3\n        /* \"#utility.yul\":384:391   */\n      dup5\n        /* \"#utility.yul\":380:403   */\n      sub\n        /* \"#utility.yul\":376:408   */\n      slt\n        /* \"#utility.yul\":373:492   */\n      iszero\n      tag_39\n      jumpi\n        /* \"#utility.yul\":411:490   */\n      tag_40\n      tag_41\n      jump\t// in\n    tag_40:\n        /* \"#utility.yul\":373:492   */\n    tag_39:\n        /* \"#utility.yul\":531:532   */\n      0x00\n        /* \"#utility.yul\":556:609   */\n      tag_42\n        /* \"#utility.yul\":601:608   */\n      dup5\n        /* \"#utility.yul\":592:598   */\n      dup3\n        /* \"#utility.yul\":581:590   */\n      dup6\n        /* \"#utility.yul\":577:599   */\n      add\n        /* \"#utility.yul\":556:609   */\n      tag_30\n      jump\t// in\n    tag_42:\n        /* \"#utility.yul\":546:609   */\n      swap2\n      pop\n        /* \"#utility.yul\":502:619   */\n      pop\n        /* \"#utility.yul\":297:626   */\n      swap3\n      swap2\n      pop\n      pop\n      jump\t// out\n        /* \"#utility.yul\":632:961   */\n    tag_10:\n        /* \"#utility.yul\":691:697   */\n      0x00\n        /* \"#utility.yul\":740:742   */\n      0x20\n        /* \"#utility.yul\":728:737   */\n      dup3\n        /* \"#utility.yul\":719:726   */\n      dup5\n        /* \"#utility.yul\":715:738   */\n      sub\n        /* \"#utility.yul\":711:743   */\n      slt\n        /* \"#utility.yul\":708:827   */\n      iszero\n      tag_44\n      jumpi\n        /* \"#utility.yul\":746:825   */\n      tag_45\n      tag_41\n      jump\t// in\n    tag_45:\n        /* \"#utility.yul\":708:827   */\n    tag_44:\n        /* \"#utility.yul\":866:867   */\n      0x00\n        /* \"#utility.yul\":891:944   */\n      tag_46\n        /* \"#utility.yul\":936:943   */\n      dup5\n        /* \"#utility.yul\":927:933   */\n      dup3\n        /* \"#utility.yul\":916:925   */\n      dup6\n        /* \"#utility.yul\":912:934   */\n      add\n        /* \"#utility.yul\":891:944   */\n      tag_34\n      jump\t// in\n    tag_46:\n        /* \"#utility.yul\":881:944   */\n      swap2\n      pop\n        /* \"#utility.yul\":837:954   */\n      pop\n        /* \"#utility.yul\":632:961   */\n      swap3\n      swap2\n      pop\n      pop\n      jump\t// out\n        /* \"#utility.yul\":967:1076   */\n    tag_47:\n        /* \"#utility.yul\":1048:1069   */\n      tag_49\n        /* \"#utility.yul\":1063:1068   */\n      dup2\n        /* \"#utility.yul\":1048:1069   */\n      tag_50\n      jump\t// in\n    tag_49:\n        /* \"#utility.yul\":1043:1046   */\n      dup3\n        /* \"#utility.yul\":1036:1070   */\n      mstore\n        /* \"#utility.yul\":967:1076   */\n      pop\n      pop\n      jump\t// out\n        /* \"#utility.yul\":1082:1292   */\n    tag_13:\n        /* \"#utility.yul\":1169:1173   */\n      0x00\n        /* \"#utility.yul\":1207:1209   */\n      0x20\n        /* \"#utility.yul\":1196:1205   */\n      dup3\n        /* \"#utility.yul\":1192:1210   */\n      add\n        /* \"#utility.yul\":1184:1210   */\n      swap1\n      pop\n        /* \"#utility.yul\":1220:1285   */\n      tag_52\n        /* \"#utility.yul\":1282:1283   */\n      0x00\n        /* \"#utility.yul\":1271:1280   */\n      dup4\n        /* \"#utility.yul\":1267:1284   */\n      add\n        /* \"#utility.yul\":1258:1264   */\n      dup5\n        /* \"#utility.yul\":1220:1285   */\n      tag_47\n      jump\t// in\n    tag_52:\n        /* \"#utility.yul\":1082:1292   */\n      swap3\n      swap2\n      pop\n      pop\n      jump\t// out\n        /* \"#utility.yul\":1379:1475   */\n    tag_55:\n        /* \"#utility.yul\":1416:1423   */\n      0x00\n        /* \"#utility.yul\":1445:1469   */\n      tag_57\n        /* \"#utility.yul\":1463:1468   */\n      dup3\n        /* \"#utility.yul\":1445:1469   */\n      tag_58\n      jump\t// in\n    tag_57:\n        /* \"#utility.yul\":1434:1469   */\n      swap1\n      pop\n        /* \"#utility.yul\":1379:1475   */\n      swap2\n      swap1\n      pop\n      jump\t// out\n        /* \"#utility.yul\":1481:1571   */\n    tag_50:\n        /* \"#utility.yul\":1515:1522   */\n      0x00\n        /* \"#utility.yul\":1558:1563   */\n      dup2\n        /* \"#utility.yul\":1551:1564   */\n      iszero\n        /* \"#utility.yul\":1544:1565   */\n      iszero\n        /* \"#utility.yul\":1533:1565   */\n      swap1\n      pop\n        /* \"#utility.yul\":1481:1571   */\n      swap2\n      swap1\n      pop\n      jump\t// out\n        /* \"#utility.yul\":1577:1703   */\n    tag_58:\n        /* \"#utility.yul\":1614:1621   */\n      0x00\n        /* \"#utility.yul\":1654:1696   */\n      0xffffffffffffffffffffffffffffffffffffffff\n        /* \"#utility.yul\":1647:1652   */\n      dup3\n        /* \"#utility.yul\":1643:1697   */\n      and\n        /* \"#utility.yul\":1632:1697   */\n      swap1\n      pop\n        /* \"#utility.yul\":1577:1703   */\n      swap2\n      swap1\n      pop\n      jump\t// out\n        /* \"#utility.yul\":1709:1786   */\n    tag_61:\n        /* \"#utility.yul\":1746:1753   */\n      0x00\n        /* \"#utility.yul\":1775:1780   */\n      dup2\n        /* \"#utility.yul\":1764:1780   */\n      swap1\n      pop\n        /* \"#utility.yul\":1709:1786   */\n      swap2\n      swap1\n      pop\n      jump\t// out\n        /* \"#utility.yul\":1915:2032   */\n    tag_41:\n        /* \"#utility.yul\":2024:2025   */\n      0x00\n        /* \"#utility.yul\":2021:2022   */\n      dup1\n        /* \"#utility.yul\":2014:2026   */\n      revert\n        /* \"#utility.yul\":2038:2160   */\n    tag_33:\n        /* \"#utility.yul\":2111:2135   */\n      tag_67\n        /* \"#utility.yul\":2129:2134   */\n      dup2\n        /* \"#utility.yul\":2111:2135   */\n      tag_55\n      jump\t// in\n    tag_67:\n        /* \"#utility.yul\":2104:2109   */\n      dup2\n        /* \"#utility.yul\":2101:2136   */\n      eq\n        /* \"#utility.yul\":2091:2154   */\n      tag_68\n      jumpi\n        /* \"#utility.yul\":2150:2151   */\n      0x00\n        /* \"#utility.yul\":2147:2148   */\n      dup1\n        /* \"#utility.yul\":2140:2152   */\n      revert\n        /* \"#utility.yul\":2091:2154   */\n    tag_68:\n        /* \"#utility.yul\":2038:2160   */\n      pop\n      jump\t// out\n        /* \"#utility.yul\":2166:2288   */\n    tag_37:\n        /* \"#utility.yul\":2239:2263   */\n      tag_70\n        /* \"#utility.yul\":2257:2262   */\n      dup2\n        /* \"#utility.yul\":2239:2263   */\n      tag_61\n      jump\t// in\n    tag_70:\n        /* \"#utility.yul\":2232:2237   */\n      dup2\n        /* \"#utility.yul\":2229:2264   */\n      eq\n        /* \"#utility.yul\":2219:2282   */\n      tag_71\n      jumpi\n        /* \"#utility.yul\":2278:2279   */\n      0x00\n        /* \"#utility.yul\":2275:2276   */\n      dup1\n        /* \"#utility.yul\":2268:2280   */\n      revert\n        /* \"#utility.yul\":2219:2282   */\n    tag_71:\n        /* \"#utility.yul\":2166:2288   */\n      pop\n      jump\t// out\n\n    auxdata: 0xa2646970667358221220f944435a875ae03bbb1b6147a1d00022d077849e1d8747a488ed341f18bd5a6364736f6c63430008070033\n}\n",
				"bytecode": {
					"linkReferences": {},
					"object": "608060405260008060006101000a81548160ff02191690831515021790555060008060016101000a81548160ff02191690831515021790555060008060026101000a81548160ff02191690831515021790555034801561005e57600080fd5b5061032f8061006e6000396000f3fe608060405234801561001057600080fd5b50600436106100575760003560e01c80632ae426861461005c57806389656cce1461008c5780638b43854314610096578063c8cbc926146100b2578063ffc90b5e146100e2575b600080fd5b61007660048036038101906100719190610227565b6100ec565b6040516100839190610263565b60405180910390f35b61009461010c565b005b6100b060048036038101906100ab9190610227565b610166565b005b6100cc60048036038101906100c791906101fa565b610194565b6040516100d99190610263565b60405180910390f35b6100ea6101b4565b005b60016020528060005260406000206000915054906101000a900460ff1681565b6001600260003373ffffffffffffffffffffffffffffffffffffffff1673ffffffffffffffffffffffffffffffffffffffff16815260200190815260200160002060006101000a81548160ff021916908315150217905550565b600180600083815260200190815260200160002060006101000a81548160ff02191690831515021790555050565b60026020528060005260406000206000915054906101000a900460ff1681565b60016000806101000a81548160ff021916908315150217905550565b6000813590506101df816102cb565b92915050565b6000813590506101f4816102e2565b92915050565b6000602082840312156102105761020f6102c6565b5b600061021e848285016101d0565b91505092915050565b60006020828403121561023d5761023c6102c6565b5b600061024b848285016101e5565b91505092915050565b61025d81610290565b82525050565b60006020820190506102786000830184610254565b92915050565b60006102898261029c565b9050919050565b60008115159050919050565b600073ffffffffffffffffffffffffffffffffffffffff82169050919050565b6000819050919050565b600080fd5b6102d48161027e565b81146102df57600080fd5b50565b6102eb816102bc565b81146102f657600080fd5b5056fea2646970667358221220f944435a875ae03bbb1b6147a1d00022d077849e1d8747a488ed341f18bd5a6364736f6c63430008070033",
					"opcodes": "PUSH1 0x80 PUSH1 0x40 MSTORE PUSH1 0x0 DUP1 PUSH1 0x0 PUSH2 0x100 EXP DUP2 SLOAD DUP2 PUSH1 0xFF MUL NOT AND SWAP1 DUP4 ISZERO ISZERO MUL OR SWAP1 SSTORE POP PUSH1 0x0 DUP1 PUSH1 0x1 PUSH2 0x100 EXP DUP2 SLOAD DUP2 PUSH1 0xFF MUL NOT AND SWAP1 DUP4 ISZERO ISZERO MUL OR SWAP1 SSTORE POP PUSH1 0x0 DUP1 PUSH1 0x2 PUSH2 0x100 EXP DUP2 SLOAD DUP2 PUSH1 0xFF MUL NOT AND SWAP1 DUP4 ISZERO ISZERO MUL OR SWAP1 SSTORE POP CALLVALUE DUP1 ISZERO PUSH2 0x5E JUMPI PUSH1 0x0 DUP1 REVERT JUMPDEST POP PUSH2 0x32F DUP1 PUSH2 0x6E PUSH1 0x0 CODECOPY PUSH1 0x0 RETURN INVALID PUSH1 0x80 PUSH1 0x40 MSTORE CALLVALUE DUP1 ISZERO PUSH2 0x10 JUMPI PUSH1 0x0 DUP1 REVERT JUMPDEST POP PUSH1 0x4 CALLDATASIZE LT PUSH2 0x57 JUMPI PUSH1 0x0 CALLDATALOAD PUSH1 0xE0 SHR DUP1 PUSH4 0x2AE42686 EQ PUSH2 0x5C JUMPI DUP1 PUSH4 0x89656CCE EQ PUSH2 0x8C JUMPI DUP1 PUSH4 0x8B438543 EQ PUSH2 0x96 JUMPI DUP1 PUSH4 0xC8CBC926 EQ PUSH2 0xB2 JUMPI DUP1 PUSH4 0xFFC90B5E EQ PUSH2 0xE2 JUMPI JUMPDEST PUSH1 0x0 DUP1 REVERT JUMPDEST PUSH2 0x76 PUSH1 0x4 DUP1 CALLDATASIZE SUB DUP2 ADD SWAP1 PUSH2 0x71 SWAP2 SWAP1 PUSH2 0x227 JUMP JUMPDEST PUSH2 0xEC JUMP JUMPDEST PUSH1 0x40 MLOAD PUSH2 0x83 SWAP2 SWAP1 PUSH2 0x263 JUMP JUMPDEST PUSH1 0x40 MLOAD DUP1 SWAP2 SUB SWAP1 RETURN JUMPDEST PUSH2 0x94 PUSH2 0x10C JUMP JUMPDEST STOP JUMPDEST PUSH2 0xB0 PUSH1 0x4 DUP1 CALLDATASIZE SUB DUP2 ADD SWAP1 PUSH2 0xAB SWAP2 SWAP1 PUSH2 0x227 JUMP JUMPDEST PUSH2 0x166 JUMP JUMPDEST STOP JUMPDEST PUSH2 0xCC PUSH1 0x4 DUP1 CALLDATASIZE SUB DUP2 ADD SWAP1 PUSH2 0xC7 SWAP2 SWAP1 PUSH2 0x1FA JUMP JUMPDEST PUSH2 0x194 JUMP JUMPDEST PUSH1 0x40 MLOAD PUSH2 0xD9 SWAP2 SWAP1 PUSH2 0x263 JUMP JUMPDEST PUSH1 0x40 MLOAD DUP1 SWAP2 SUB SWAP1 RETURN JUMPDEST PUSH2 0xEA PUSH2 0x1B4 JUMP JUMPDEST STOP JUMPDEST PUSH1 0x1 PUSH1 0x20 MSTORE DUP1 PUSH1 0x0 MSTORE PUSH1 0x40 PUSH1 0x0 KECCAK256 PUSH1 0x0 SWAP2 POP SLOAD SWAP1 PUSH2 0x100 EXP SWAP1 DIV PUSH1 0xFF AND DUP2 JUMP JUMPDEST PUSH1 0x1 PUSH1 0x2 PUSH1 0x0 CALLER PUSH20 0xFFFFFFFFFFFFFFFFFFFFFFFFFFFFFFFFFFFFFFFF AND PUSH20 0xFFFFFFFFFFFFFFFFFFFFFFFFFFFFFFFFFFFFFFFF AND DUP2 MSTORE PUSH1 0x20 ADD SWAP1 DUP2 MSTORE PUSH1 0x20 ADD PUSH1 0x0 KECCAK256 PUSH1 0x0 PUSH2 0x100 EXP DUP2 SLOAD DUP2 PUSH1 0xFF MUL NOT AND SWAP1 DUP4 ISZERO ISZERO MUL OR SWAP1 SSTORE POP JUMP JUMPDEST PUSH1 0x1 DUP1 PUSH1 0x0 DUP4 DUP2 MSTORE PUSH1 0x20 ADD SWAP1 DUP2 MSTORE PUSH1 0x20 ADD PUSH1 0x0 KECCAK256 PUSH1 0x0 PUSH2 0x100 EXP DUP2 SLOAD DUP2 PUSH1 0xFF MUL NOT AND SWAP1 DUP4 ISZERO ISZERO MUL OR SWAP1 SSTORE POP POP JUMP JUMPDEST PUSH1 0x2 PUSH1 0x20 MSTORE DUP1 PUSH1 0x0 MSTORE PUSH1 0x40 PUSH1 0x0 KECCAK256 PUSH1 0x0 SWAP2 POP SLOAD SWAP1 PUSH2 0x100 EXP SWAP1 DIV PUSH1 0xFF AND DUP2 JUMP JUMPDEST PUSH1 0x1 PUSH1 0x0 DUP1 PUSH2 0x100 EXP DUP2 SLOAD DUP2 PUSH1 0xFF MUL NOT AND SWAP1 DUP4 ISZERO ISZERO MUL OR SWAP1 SSTORE POP JUMP JUMPDEST PUSH1 0x0 DUP2 CALLDATALOAD SWAP1 POP PUSH2 0x1DF DUP2 PUSH2 0x2CB JUMP JUMPDEST SWAP3 SWAP2 POP POP JUMP JUMPDEST PUSH1 0x0 DUP2 CALLDATALOAD SWAP1 POP PUSH2 0x1F4 DUP2 PUSH2 0x2E2 JUMP JUMPDEST SWAP3 SWAP2 POP POP JUMP JUMPDEST PUSH1 0x0 PUSH1 0x20 DUP3 DUP5 SUB SLT ISZERO PUSH2 0x210 JUMPI PUSH2 0x20F PUSH2 0x2C6 JUMP JUMPDEST JUMPDEST PUSH1 0x0 PUSH2 0x21E DUP5 DUP3 DUP6 ADD PUSH2 0x1D0 JUMP JUMPDEST SWAP2 POP POP SWAP3 SWAP2 POP POP JUMP JUMPDEST PUSH1 0x0 PUSH1 0x20 DUP3 DUP5 SUB SLT ISZERO PUSH2 0x23D JUMPI PUSH2 0x23C PUSH2 0x2C6 JUMP JUMPDEST JUMPDEST PUSH1 0x0 PUSH2 0x24B DUP5 DUP3 DUP6 ADD PUSH2 0x1E5 JUMP JUMPDEST SWAP2 POP POP SWAP3 SWAP2 POP POP JUMP JUMPDEST PUSH2 0x25D DUP2 PUSH2 0x290 JUMP JUMPDEST DUP3 MSTORE POP POP JUMP JUMPDEST PUSH1 0x0 PUSH1 0x20 DUP3 ADD SWAP1 POP PUSH2 0x278 PUSH1 0x0 DUP4 ADD DUP5 PUSH2 0x254 JUMP JUMPDEST SWAP3 SWAP2 POP POP JUMP JUMPDEST PUSH1 0x0 PUSH2 0x289 DUP3 PUSH2 0x29C JUMP JUMPDEST SWAP1 POP SWAP2 SWAP1 POP JUMP JUMPDEST PUSH1 0x0 DUP2 ISZERO ISZERO SWAP1 POP SWAP2 SWAP1 POP JUMP JUMPDEST PUSH1 0x0 PUSH20 0xFFFFFFFFFFFFFFFFFFFFFFFFFFFFFFFFFFFFFFFF DUP3 AND SWAP1 POP SWAP2 SWAP1 POP JUMP JUMPDEST PUSH1 0x0 DUP2 SWAP1 POP SWAP2 SWAP1 POP JUMP JUMPDEST PUSH1 0x0 DUP1 REVERT JUMPDEST PUSH2 0x2D4 DUP2 PUSH2 0x27E JUMP JUMPDEST DUP2 EQ PUSH2 0x2DF JUMPI PUSH1 0x0 DUP1 REVERT JUMPDEST POP JUMP JUMPDEST PUSH2 0x2EB DUP2 PUSH2 0x2BC JUMP JUMPDEST DUP2 EQ PUSH2 0x2F6 JUMPI PUSH1 0x0 DUP1 REVERT JUMPDEST POP JUMP INVALID LOG2 PUSH5 0x6970667358 0x22 SLT KECCAK256 0xF9 DIFFICULTY NUMBER GAS DUP8 GAS 0xE0 EXTCODESIZE 0xBB SHL PUSH2 0x47A1 0xD0 STOP 0x22 0xD0 PUSH24 0x849E1D8747A488ED341F18BD5A6364736F6C634300080700 CALLER "
				},
				"gasEstimates": {
					"creation": {
						"codeDepositCost": "163000",
						"executionCost": "73109",
						"totalCost": "236109"
					},
					"external": {
						"m1(uint256)": "2774",
						"m2(address)": "2889",
						"setA1ToTrue()": "24477",
						"setM2ToTrue()": "24500",
						"setValueM1(uint256)": "24773"
					}
				},
				"methodIdentifiers": {
					"m1(uint256)": "2ae42686",
					"m2(address)": "c8cbc926",
					"setA1ToTrue()": "ffc90b5e",
					"setM2ToTrue()": "89656cce",
					"setValueM1(uint256)": "8b438543"
				}
			},
			"storageLayout": {
				"storage": [
					{
						"astId": 4,
						"contract": "TestMapping.sol:TestMapping",
						"label": "a1",
						"offset": 0,
						"slot": "0",
						"type": "t_bool"
					},
					{
						"astId": 7,
						"contract": "TestMapping.sol:TestMapping",
						"label": "a2",
						"offset": 1,
						"slot": "0",
						"type": "t_bool"
					},
					{
						"astId": 10,
						"contract": "TestMapping.sol:TestMapping",
						"label": "a3",
						"offset": 2,
						"slot": "0",
						"type": "t_bool"
					},
					{
						"astId": 14,
						"contract": "TestMapping.sol:TestMapping",
						"label": "m1",
						"offset": 0,
						"slot": "1",
						"type": "t_mapping(t_uint256,t_bool)"
					},
					{
						"astId": 18,
						"contract": "TestMapping.sol:TestMapping",
						"label": "m2",
						"offset": 0,
						"slot": "2",
						"type": "t_mapping(t_address,t_bool)"
					}
				],
				"types": {
					"t_address": {
						"encoding": "inplace",
						"label": "address",
						"numberOfBytes": "20"
					},
					"t_bool": {
						"encoding": "inplace",
						"label": "bool",
						"numberOfBytes": "1"
					},
					"t_mapping(t_address,t_bool)": {
						"encoding": "mapping",
						"key": "t_address",
						"label": "mapping(address => bool)",
						"numberOfBytes": "32",
						"value": "t_bool"
					},
					"t_mapping(t_uint256,t_bool)": {
						"encoding": "mapping",
						"key": "t_uint256",
						"label": "mapping(uint256 => bool)",
						"numberOfBytes": "32",
						"value": "t_bool"
					},
					"t_uint256": {
						"encoding": "inplace",
						"label": "uint256",
						"numberOfBytes": "32"
					}
				}
			},
			"userdoc": {
				"kind": "user",
				"methods": {},
				"version": 1
			}
		}
	}
}