{
	"TestCallAbi.sol": {
		"B": {
			"abi": [
				{
					"anonymous": false,
					"inputs": [
						{
							"indexed": false,
							"internalType": "bool",
							"name": "_success",
							"type": "bool"
						},
						{
							"indexed": false,
							"internalType": "bytes",
							"name": "_output",
							"type": "bytes"
						}
					],
					"name": "EventCall1",
					"type": "event"
				},
				{
					"inputs": [
						{
							"internalType": "address",
							"name": "_contractAddr",
							"type": "address"
						},
						{
							"internalType": "uint256",
							"name": "_num1",
							"type": "uint256"
						},
						{
							"internalType": "uint256",
							"name": "_num2",
							"type": "uint256"
						}
					],
					"name": "call1",
					"outputs": [],
					"stateMutability": "nonpayable",
					"type": "function"
				},
				{
					"inputs": [
						{
							"internalType": "address payable",
							"name": "_to",
							"type": "address"
						}
					],
					"name": "transfer1",
					"outputs": [],
					"stateMutability": "payable",
					"type": "function"
				}
			],
			"devdoc": {
				"kind": "dev",
				"methods": {},
				"version": 1
			},
			"evm": {
				"assembly": "    /* \"TestCallAbi.sol\":301:999  contract B{... */\n  mstore(0x40, 0x80)\n  callvalue\n  dup1\n  iszero\n  tag_1\n  jumpi\n  0x00\n  dup1\n  revert\ntag_1:\n  pop\n  dataSize(sub_0)\n  dup1\n  dataOffset(sub_0)\n  0x00\n  codecopy\n  0x00\n  return\nstop\n\nsub_0: assembly {\n        /* \"TestCallAbi.sol\":301:999  contract B{... */\n      mstore(0x40, 0x80)\n      jumpi(tag_1, lt(calldatasize, 0x04))\n      shr(0xe0, calldataload(0x00))\n      dup1\n      0x312e5a61\n      eq\n      tag_2\n      jumpi\n      dup1\n      0xe0587a35\n      eq\n      tag_3\n      jumpi\n    tag_1:\n      0x00\n      dup1\n      revert\n        /* \"TestCallAbi.sol\":392:567  function transfer1(address payable _to) public payable{... */\n    tag_2:\n      tag_4\n      0x04\n      dup1\n      calldatasize\n      sub\n      dup2\n      add\n      swap1\n      tag_5\n      swap2\n      swap1\n      tag_6\n      jump\t// in\n    tag_5:\n      tag_7\n      jump\t// in\n    tag_4:\n      stop\n        /* \"TestCallAbi.sol\":626:996  function call1(address _contractAddr, uint256 _num1, uint256 _num2) public {... */\n    tag_3:\n      callvalue\n      dup1\n      iszero\n      tag_8\n      jumpi\n      0x00\n      dup1\n      revert\n    tag_8:\n      pop\n      tag_9\n      0x04\n      dup1\n      calldatasize\n      sub\n      dup2\n      add\n      swap1\n      tag_10\n      swap2\n      swap1\n      tag_11\n      jump\t// in\n    tag_10:\n      tag_12\n      jump\t// in\n    tag_9:\n      stop\n        /* \"TestCallAbi.sol\":392:567  function transfer1(address payable _to) public payable{... */\n    tag_7:\n        /* \"TestCallAbi.sol\":458:470  bool success */\n      0x00\n        /* \"TestCallAbi.sol\":475:478  _to */\n      dup2\n        /* \"TestCallAbi.sol\":475:483  _to.call */\n      0xffffffffffffffffffffffffffffffffffffffff\n      and\n        /* \"TestCallAbi.sol\":490:499  msg.value */\n      callvalue\n        /* \"TestCallAbi.sol\":475:504  _to.call{value:msg.value}(\"\") */\n      mload(0x40)\n      tag_14\n      swap1\n      tag_15\n      jump\t// in\n    tag_14:\n      0x00\n      mload(0x40)\n      dup1\n      dup4\n      sub\n      dup2\n      dup6\n      dup8\n      gas\n      call\n      swap3\n      pop\n      pop\n      pop\n      returndatasize\n      dup1\n      0x00\n      dup2\n      eq\n      tag_18\n      jumpi\n      mload(0x40)\n      swap2\n      pop\n      and(add(returndatasize, 0x3f), not(0x1f))\n      dup3\n      add\n      0x40\n      mstore\n      returndatasize\n      dup3\n      mstore\n      returndatasize\n      0x00\n      0x20\n      dup5\n      add\n      returndatacopy\n      jump(tag_17)\n    tag_18:\n      0x60\n      swap2\n      pop\n    tag_17:\n      pop\n        /* \"TestCallAbi.sol\":457:504  (bool success,) = _to.call{value:msg.value}(\"\") */\n      pop\n      swap1\n      pop\n        /* \"TestCallAbi.sol\":523:530  success */\n      dup1\n        /* \"TestCallAbi.sol\":515:559  require(success, \"failed to transfer ether\") */\n      tag_19\n      jumpi\n      mload(0x40)\n      0x08c379a000000000000000000000000000000000000000000000000000000000\n      dup2\n      mstore\n      0x04\n      add\n      tag_20\n      swap1\n      tag_21\n      jump\t// in\n    tag_20:\n      mload(0x40)\n      dup1\n      swap2\n      sub\n      swap1\n      revert\n    tag_19:\n        /* \"TestCallAbi.sol\":446:567  {... */\n      pop\n        /* \"TestCallAbi.sol\":392:567  function transfer1(address payable _to) public payable{... */\n      pop\n      jump\t// out\n        /* \"TestCallAbi.sol\":626:996  function call1(address _contractAddr, uint256 _num1, uint256 _num2) public {... */\n    tag_12:\n        /* \"TestCallAbi.sol\":713:725  bool success */\n      0x00\n        /* \"TestCallAbi.sol\":727:764  bytes memory outputFromCalledFunction */\n      dup1\n        /* \"TestCallAbi.sol\":768:781  _contractAddr */\n      dup5\n        /* \"TestCallAbi.sol\":768:786  _contractAddr.call */\n      0xffffffffffffffffffffffffffffffffffffffff\n      and\n        /* \"TestCallAbi.sol\":848:853  _num1 */\n      dup5\n        /* \"TestCallAbi.sol\":854:859  _num2 */\n      dup5\n        /* \"TestCallAbi.sol\":801:860  abi.encodeWithSignature(\"add1(uint256,uint256\",_num1,_num2) */\n      add(0x24, mload(0x40))\n      tag_23\n      swap3\n      swap2\n      swap1\n      tag_24\n      jump\t// in\n    tag_23:\n      mload(0x40)\n      0x20\n      dup2\n      dup4\n      sub\n      sub\n      dup2\n      mstore\n      swap1\n      0x40\n      mstore\n      and(not(0xffffffffffffffffffffffffffffffffffffffffffffffffffffffff), 0xf7be847500000000000000000000000000000000000000000000000000000000)\n      0x20\n      dup3\n      add\n      dup1\n      mload\n      0xffffffffffffffffffffffffffffffffffffffffffffffffffffffff\n      dup4\n      dup2\n      dup4\n      and\n      or\n      dup4\n      mstore\n      pop\n      pop\n      pop\n      pop\n        /* \"TestCallAbi.sol\":768:873  _contractAddr.call(... */\n      mload(0x40)\n      tag_25\n      swap2\n      swap1\n      tag_26\n      jump\t// in\n    tag_25:\n      0x00\n      mload(0x40)\n      dup1\n      dup4\n      sub\n      dup2\n      0x00\n      dup7\n      gas\n      call\n      swap2\n      pop\n      pop\n      returndatasize\n      dup1\n      0x00\n      dup2\n      eq\n      tag_29\n      jumpi\n      mload(0x40)\n      swap2\n      pop\n      and(add(returndatasize, 0x3f), not(0x1f))\n      dup3\n      add\n      0x40\n      mstore\n      returndatasize\n      dup3\n      mstore\n      returndatasize\n      0x00\n      0x20\n      dup5\n      add\n      returndatacopy\n      jump(tag_28)\n    tag_29:\n      0x60\n      swap2\n      pop\n    tag_28:\n      pop\n        /* \"TestCallAbi.sol\":712:873  (bool success, bytes memory outputFromCalledFunction) = _contractAddr.call(... */\n      swap2\n      pop\n      swap2\n      pop\n        /* \"TestCallAbi.sol\":892:899  success */\n      dup2\n        /* \"TestCallAbi.sol\":884:928  require(success, \"failed to transfer ether\") */\n      tag_30\n      jumpi\n      mload(0x40)\n      0x08c379a000000000000000000000000000000000000000000000000000000000\n      dup2\n      mstore\n      0x04\n      add\n      tag_31\n      swap1\n      tag_21\n      jump\t// in\n    tag_31:\n      mload(0x40)\n      dup1\n      swap2\n      sub\n      swap1\n      revert\n    tag_30:\n        /* \"TestCallAbi.sol\":944:988  EventCall1(success,outputFromCalledFunction) */\n      0x33e31ffe1621482bf566c6a5a5a785ba5ca2012a16a4054402e91fd8adb6953c\n        /* \"TestCallAbi.sol\":955:962  success */\n      dup3\n        /* \"TestCallAbi.sol\":963:987  outputFromCalledFunction */\n      dup3\n        /* \"TestCallAbi.sol\":944:988  EventCall1(success,outputFromCalledFunction) */\n      mload(0x40)\n      tag_32\n      swap3\n      swap2\n      swap1\n      tag_33\n      jump\t// in\n    tag_32:\n      mload(0x40)\n      dup1\n      swap2\n      sub\n      swap1\n      log1\n        /* \"TestCallAbi.sol\":701:996  {... */\n      pop\n      pop\n        /* \"TestCallAbi.sol\":626:996  function call1(address _contractAddr, uint256 _num1, uint256 _num2) public {... */\n      pop\n      pop\n      pop\n      jump\t// out\n        /* \"#utility.yul\":88:205   */\n    tag_35:\n        /* \"#utility.yul\":197:198   */\n      0x00\n        /* \"#utility.yul\":194:195   */\n      dup1\n        /* \"#utility.yul\":187:199   */\n      revert\n        /* \"#utility.yul\":334:460   */\n    tag_37:\n        /* \"#utility.yul\":371:378   */\n      0x00\n        /* \"#utility.yul\":411:453   */\n      0xffffffffffffffffffffffffffffffffffffffff\n        /* \"#utility.yul\":404:409   */\n      dup3\n        /* \"#utility.yul\":400:454   */\n      and\n        /* \"#utility.yul\":389:454   */\n      swap1\n      pop\n        /* \"#utility.yul\":334:460   */\n      swap2\n      swap1\n      pop\n      jump\t// out\n        /* \"#utility.yul\":466:570   */\n    tag_38:\n        /* \"#utility.yul\":511:518   */\n      0x00\n        /* \"#utility.yul\":540:564   */\n      tag_68\n        /* \"#utility.yul\":558:563   */\n      dup3\n        /* \"#utility.yul\":540:564   */\n      tag_37\n      jump\t// in\n    tag_68:\n        /* \"#utility.yul\":529:564   */\n      swap1\n      pop\n        /* \"#utility.yul\":466:570   */\n      swap2\n      swap1\n      pop\n      jump\t// out\n        /* \"#utility.yul\":576:714   */\n    tag_39:\n        /* \"#utility.yul\":657:689   */\n      tag_70\n        /* \"#utility.yul\":683:688   */\n      dup2\n        /* \"#utility.yul\":657:689   */\n      tag_38\n      jump\t// in\n    tag_70:\n        /* \"#utility.yul\":650:655   */\n      dup2\n        /* \"#utility.yul\":647:690   */\n      eq\n        /* \"#utility.yul\":637:708   */\n      tag_71\n      jumpi\n        /* \"#utility.yul\":704:705   */\n      0x00\n        /* \"#utility.yul\":701:702   */\n      dup1\n        /* \"#utility.yul\":694:706   */\n      revert\n        /* \"#utility.yul\":637:708   */\n    tag_71:\n        /* \"#utility.yul\":576:714   */\n      pop\n      jump\t// out\n        /* \"#utility.yul\":720:875   */\n    tag_40:\n        /* \"#utility.yul\":774:779   */\n      0x00\n        /* \"#utility.yul\":812:818   */\n      dup2\n        /* \"#utility.yul\":799:819   */\n      calldataload\n        /* \"#utility.yul\":790:819   */\n      swap1\n      pop\n        /* \"#utility.yul\":828:869   */\n      tag_73\n        /* \"#utility.yul\":863:868   */\n      dup2\n        /* \"#utility.yul\":828:869   */\n      tag_39\n      jump\t// in\n    tag_73:\n        /* \"#utility.yul\":720:875   */\n      swap3\n      swap2\n      pop\n      pop\n      jump\t// out\n        /* \"#utility.yul\":881:1226   */\n    tag_6:\n        /* \"#utility.yul\":948:954   */\n      0x00\n        /* \"#utility.yul\":997:999   */\n      0x20\n        /* \"#utility.yul\":985:994   */\n      dup3\n        /* \"#utility.yul\":976:983   */\n      dup5\n        /* \"#utility.yul\":972:995   */\n      sub\n        /* \"#utility.yul\":968:1000   */\n      slt\n        /* \"#utility.yul\":965:1084   */\n      iszero\n      tag_75\n      jumpi\n        /* \"#utility.yul\":1003:1082   */\n      tag_76\n      tag_35\n      jump\t// in\n    tag_76:\n        /* \"#utility.yul\":965:1084   */\n    tag_75:\n        /* \"#utility.yul\":1123:1124   */\n      0x00\n        /* \"#utility.yul\":1148:1209   */\n      tag_77\n        /* \"#utility.yul\":1201:1208   */\n      dup5\n        /* \"#utility.yul\":1192:1198   */\n      dup3\n        /* \"#utility.yul\":1181:1190   */\n      dup6\n        /* \"#utility.yul\":1177:1199   */\n      add\n        /* \"#utility.yul\":1148:1209   */\n      tag_40\n      jump\t// in\n    tag_77:\n        /* \"#utility.yul\":1138:1209   */\n      swap2\n      pop\n        /* \"#utility.yul\":1094:1219   */\n      pop\n        /* \"#utility.yul\":881:1226   */\n      swap3\n      swap2\n      pop\n      pop\n      jump\t// out\n        /* \"#utility.yul\":1232:1328   */\n    tag_41:\n        /* \"#utility.yul\":1269:1276   */\n      0x00\n        /* \"#utility.yul\":1298:1322   */\n      tag_79\n        /* \"#utility.yul\":1316:1321   */\n      dup3\n        /* \"#utility.yul\":1298:1322   */\n      tag_37\n      jump\t// in\n    tag_79:\n        /* \"#utility.yul\":1287:1322   */\n      swap1\n      pop\n        /* \"#utility.yul\":1232:1328   */\n      swap2\n      swap1\n      pop\n      jump\t// out\n        /* \"#utility.yul\":1334:1456   */\n    tag_42:\n        /* \"#utility.yul\":1407:1431   */\n      tag_81\n        /* \"#utility.yul\":1425:1430   */\n      dup2\n        /* \"#utility.yul\":1407:1431   */\n      tag_41\n      jump\t// in\n    tag_81:\n        /* \"#utility.yul\":1400:1405   */\n      dup2\n        /* \"#utility.yul\":1397:1432   */\n      eq\n        /* \"#utility.yul\":1387:1450   */\n      tag_82\n      jumpi\n        /* \"#utility.yul\":1446:1447   */\n      0x00\n        /* \"#utility.yul\":1443:1444   */\n      dup1\n        /* \"#utility.yul\":1436:1448   */\n      revert\n        /* \"#utility.yul\":1387:1450   */\n    tag_82:\n        /* \"#utility.yul\":1334:1456   */\n      pop\n      jump\t// out\n        /* \"#utility.yul\":1462:1601   */\n    tag_43:\n        /* \"#utility.yul\":1508:1513   */\n      0x00\n        /* \"#utility.yul\":1546:1552   */\n      dup2\n        /* \"#utility.yul\":1533:1553   */\n      calldataload\n        /* \"#utility.yul\":1524:1553   */\n      swap1\n      pop\n        /* \"#utility.yul\":1562:1595   */\n      tag_84\n        /* \"#utility.yul\":1589:1594   */\n      dup2\n        /* \"#utility.yul\":1562:1595   */\n      tag_42\n      jump\t// in\n    tag_84:\n        /* \"#utility.yul\":1462:1601   */\n      swap3\n      swap2\n      pop\n      pop\n      jump\t// out\n        /* \"#utility.yul\":1607:1684   */\n    tag_44:\n        /* \"#utility.yul\":1644:1651   */\n      0x00\n        /* \"#utility.yul\":1673:1678   */\n      dup2\n        /* \"#utility.yul\":1662:1678   */\n      swap1\n      pop\n        /* \"#utility.yul\":1607:1684   */\n      swap2\n      swap1\n      pop\n      jump\t// out\n        /* \"#utility.yul\":1690:1812   */\n    tag_45:\n        /* \"#utility.yul\":1763:1787   */\n      tag_87\n        /* \"#utility.yul\":1781:1786   */\n      dup2\n        /* \"#utility.yul\":1763:1787   */\n      tag_44\n      jump\t// in\n    tag_87:\n        /* \"#utility.yul\":1756:1761   */\n      dup2\n        /* \"#utility.yul\":1753:1788   */\n      eq\n        /* \"#utility.yul\":1743:1806   */\n      tag_88\n      jumpi\n        /* \"#utility.yul\":1802:1803   */\n      0x00\n        /* \"#utility.yul\":1799:1800   */\n      dup1\n        /* \"#utility.yul\":1792:1804   */\n      revert\n        /* \"#utility.yul\":1743:1806   */\n    tag_88:\n        /* \"#utility.yul\":1690:1812   */\n      pop\n      jump\t// out\n        /* \"#utility.yul\":1818:1957   */\n    tag_46:\n        /* \"#utility.yul\":1864:1869   */\n      0x00\n        /* \"#utility.yul\":1902:1908   */\n      dup2\n        /* \"#utility.yul\":1889:1909   */\n      calldataload\n        /* \"#utility.yul\":1880:1909   */\n      swap1\n      pop\n        /* \"#utility.yul\":1918:1951   */\n      tag_90\n        /* \"#utility.yul\":1945:1950   */\n      dup2\n        /* \"#utility.yul\":1918:1951   */\n      tag_45\n      jump\t// in\n    tag_90:\n        /* \"#utility.yul\":1818:1957   */\n      swap3\n      swap2\n      pop\n      pop\n      jump\t// out\n        /* \"#utility.yul\":1963:2582   */\n    tag_11:\n        /* \"#utility.yul\":2040:2046   */\n      0x00\n        /* \"#utility.yul\":2048:2054   */\n      dup1\n        /* \"#utility.yul\":2056:2062   */\n      0x00\n        /* \"#utility.yul\":2105:2107   */\n      0x60\n        /* \"#utility.yul\":2093:2102   */\n      dup5\n        /* \"#utility.yul\":2084:2091   */\n      dup7\n        /* \"#utility.yul\":2080:2103   */\n      sub\n        /* \"#utility.yul\":2076:2108   */\n      slt\n        /* \"#utility.yul\":2073:2192   */\n      iszero\n      tag_92\n      jumpi\n        /* \"#utility.yul\":2111:2190   */\n      tag_93\n      tag_35\n      jump\t// in\n    tag_93:\n        /* \"#utility.yul\":2073:2192   */\n    tag_92:\n        /* \"#utility.yul\":2231:2232   */\n      0x00\n        /* \"#utility.yul\":2256:2309   */\n      tag_94\n        /* \"#utility.yul\":2301:2308   */\n      dup7\n        /* \"#utility.yul\":2292:2298   */\n      dup3\n        /* \"#utility.yul\":2281:2290   */\n      dup8\n        /* \"#utility.yul\":2277:2299   */\n      add\n        /* \"#utility.yul\":2256:2309   */\n      tag_43\n      jump\t// in\n    tag_94:\n        /* \"#utility.yul\":2246:2309   */\n      swap4\n      pop\n        /* \"#utility.yul\":2202:2319   */\n      pop\n        /* \"#utility.yul\":2358:2360   */\n      0x20\n        /* \"#utility.yul\":2384:2437   */\n      tag_95\n        /* \"#utility.yul\":2429:2436   */\n      dup7\n        /* \"#utility.yul\":2420:2426   */\n      dup3\n        /* \"#utility.yul\":2409:2418   */\n      dup8\n        /* \"#utility.yul\":2405:2427   */\n      add\n        /* \"#utility.yul\":2384:2437   */\n      tag_46\n      jump\t// in\n    tag_95:\n        /* \"#utility.yul\":2374:2437   */\n      swap3\n      pop\n        /* \"#utility.yul\":2329:2447   */\n      pop\n        /* \"#utility.yul\":2486:2488   */\n      0x40\n        /* \"#utility.yul\":2512:2565   */\n      tag_96\n        /* \"#utility.yul\":2557:2564   */\n      dup7\n        /* \"#utility.yul\":2548:2554   */\n      dup3\n        /* \"#utility.yul\":2537:2546   */\n      dup8\n        /* \"#utility.yul\":2533:2555   */\n      add\n        /* \"#utility.yul\":2512:2565   */\n      tag_46\n      jump\t// in\n    tag_96:\n        /* \"#utility.yul\":2502:2565   */\n      swap2\n      pop\n        /* \"#utility.yul\":2457:2575   */\n      pop\n        /* \"#utility.yul\":1963:2582   */\n      swap3\n      pop\n      swap3\n      pop\n      swap3\n      jump\t// out\n        /* \"#utility.yul\":2588:2735   */\n    tag_47:\n        /* \"#utility.yul\":2689:2700   */\n      0x00\n        /* \"#utility.yul\":2726:2729   */\n      dup2\n        /* \"#utility.yul\":2711:2729   */\n      swap1\n      pop\n        /* \"#utility.yul\":2588:2735   */\n      swap3\n      swap2\n      pop\n      pop\n      jump\t// out\n        /* \"#utility.yul\":2741:2855   */\n    tag_48:\n      pop\n      jump\t// out\n        /* \"#utility.yul\":2861:3259   */\n    tag_49:\n        /* \"#utility.yul\":3020:3023   */\n      0x00\n        /* \"#utility.yul\":3041:3124   */\n      tag_100\n        /* \"#utility.yul\":3122:3123   */\n      0x00\n        /* \"#utility.yul\":3117:3120   */\n      dup4\n        /* \"#utility.yul\":3041:3124   */\n      tag_47\n      jump\t// in\n    tag_100:\n        /* \"#utility.yul\":3034:3124   */\n      swap2\n      pop\n        /* \"#utility.yul\":3133:3226   */\n      tag_101\n        /* \"#utility.yul\":3222:3225   */\n      dup3\n        /* \"#utility.yul\":3133:3226   */\n      tag_48\n      jump\t// in\n    tag_101:\n        /* \"#utility.yul\":3251:3252   */\n      0x00\n        /* \"#utility.yul\":3246:3249   */\n      dup3\n        /* \"#utility.yul\":3242:3253   */\n      add\n        /* \"#utility.yul\":3235:3253   */\n      swap1\n      pop\n        /* \"#utility.yul\":2861:3259   */\n      swap2\n      swap1\n      pop\n      jump\t// out\n        /* \"#utility.yul\":3265:3644   */\n    tag_15:\n        /* \"#utility.yul\":3449:3452   */\n      0x00\n        /* \"#utility.yul\":3471:3618   */\n      tag_103\n        /* \"#utility.yul\":3614:3617   */\n      dup3\n        /* \"#utility.yul\":3471:3618   */\n      tag_49\n      jump\t// in\n    tag_103:\n        /* \"#utility.yul\":3464:3618   */\n      swap2\n      pop\n        /* \"#utility.yul\":3635:3638   */\n      dup2\n        /* \"#utility.yul\":3628:3638   */\n      swap1\n      pop\n        /* \"#utility.yul\":3265:3644   */\n      swap2\n      swap1\n      pop\n      jump\t// out\n        /* \"#utility.yul\":3650:3819   */\n    tag_50:\n        /* \"#utility.yul\":3734:3745   */\n      0x00\n        /* \"#utility.yul\":3768:3774   */\n      dup3\n        /* \"#utility.yul\":3763:3766   */\n      dup3\n        /* \"#utility.yul\":3756:3775   */\n      mstore\n        /* \"#utility.yul\":3808:3812   */\n      0x20\n        /* \"#utility.yul\":3803:3806   */\n      dup3\n        /* \"#utility.yul\":3799:3813   */\n      add\n        /* \"#utility.yul\":3784:3813   */\n      swap1\n      pop\n        /* \"#utility.yul\":3650:3819   */\n      swap3\n      swap2\n      pop\n      pop\n      jump\t// out\n        /* \"#utility.yul\":3825:3999   */\n    tag_51:\n        /* \"#utility.yul\":3965:3991   */\n      0x6661696c656420746f207472616e736665722065746865720000000000000000\n        /* \"#utility.yul\":3961:3962   */\n      0x00\n        /* \"#utility.yul\":3953:3959   */\n      dup3\n        /* \"#utility.yul\":3949:3963   */\n      add\n        /* \"#utility.yul\":3942:3992   */\n      mstore\n        /* \"#utility.yul\":3825:3999   */\n      pop\n      jump\t// out\n        /* \"#utility.yul\":4005:4371   */\n    tag_52:\n        /* \"#utility.yul\":4147:4150   */\n      0x00\n        /* \"#utility.yul\":4168:4235   */\n      tag_107\n        /* \"#utility.yul\":4232:4234   */\n      0x18\n        /* \"#utility.yul\":4227:4230   */\n      dup4\n        /* \"#utility.yul\":4168:4235   */\n      tag_50\n      jump\t// in\n    tag_107:\n        /* \"#utility.yul\":4161:4235   */\n      swap2\n      pop\n        /* \"#utility.yul\":4244:4337   */\n      tag_108\n        /* \"#utility.yul\":4333:4336   */\n      dup3\n        /* \"#utility.yul\":4244:4337   */\n      tag_51\n      jump\t// in\n    tag_108:\n        /* \"#utility.yul\":4362:4364   */\n      0x20\n        /* \"#utility.yul\":4357:4360   */\n      dup3\n        /* \"#utility.yul\":4353:4365   */\n      add\n        /* \"#utility.yul\":4346:4365   */\n      swap1\n      pop\n        /* \"#utility.yul\":4005:4371   */\n      swap2\n      swap1\n      pop\n      jump\t// out\n        /* \"#utility.yul\":4377:4796   */\n    tag_21:\n        /* \"#utility.yul\":4543:4547   */\n      0x00\n        /* \"#utility.yul\":4581:4583   */\n      0x20\n        /* \"#utility.yul\":4570:4579   */\n      dup3\n        /* \"#utility.yul\":4566:4584   */\n      add\n        /* \"#utility.yul\":4558:4584   */\n      swap1\n      pop\n        /* \"#utility.yul\":4630:4639   */\n      dup2\n        /* \"#utility.yul\":4624:4628   */\n      dup2\n        /* \"#utility.yul\":4620:4640   */\n      sub\n        /* \"#utility.yul\":4616:4617   */\n      0x00\n        /* \"#utility.yul\":4605:4614   */\n      dup4\n        /* \"#utility.yul\":4601:4618   */\n      add\n        /* \"#utility.yul\":4594:4641   */\n      mstore\n        /* \"#utility.yul\":4658:4789   */\n      tag_110\n        /* \"#utility.yul\":4784:4788   */\n      dup2\n        /* \"#utility.yul\":4658:4789   */\n      tag_52\n      jump\t// in\n    tag_110:\n        /* \"#utility.yul\":4650:4789   */\n      swap1\n      pop\n        /* \"#utility.yul\":4377:4796   */\n      swap2\n      swap1\n      pop\n      jump\t// out\n        /* \"#utility.yul\":4802:4920   */\n    tag_53:\n        /* \"#utility.yul\":4889:4913   */\n      tag_112\n        /* \"#utility.yul\":4907:4912   */\n      dup2\n        /* \"#utility.yul\":4889:4913   */\n      tag_44\n      jump\t// in\n    tag_112:\n        /* \"#utility.yul\":4884:4887   */\n      dup3\n        /* \"#utility.yul\":4877:4914   */\n      mstore\n        /* \"#utility.yul\":4802:4920   */\n      pop\n      pop\n      jump\t// out\n        /* \"#utility.yul\":4926:5258   */\n    tag_24:\n        /* \"#utility.yul\":5047:5051   */\n      0x00\n        /* \"#utility.yul\":5085:5087   */\n      0x40\n        /* \"#utility.yul\":5074:5083   */\n      dup3\n        /* \"#utility.yul\":5070:5088   */\n      add\n        /* \"#utility.yul\":5062:5088   */\n      swap1\n      pop\n        /* \"#utility.yul\":5098:5169   */\n      tag_114\n        /* \"#utility.yul\":5166:5167   */\n      0x00\n        /* \"#utility.yul\":5155:5164   */\n      dup4\n        /* \"#utility.yul\":5151:5168   */\n      add\n        /* \"#utility.yul\":5142:5148   */\n      dup6\n        /* \"#utility.yul\":5098:5169   */\n      tag_53\n      jump\t// in\n    tag_114:\n        /* \"#utility.yul\":5179:5251   */\n      tag_115\n        /* \"#utility.yul\":5247:5249   */\n      0x20\n        /* \"#utility.yul\":5236:5245   */\n      dup4\n        /* \"#utility.yul\":5232:5250   */\n      add\n        /* \"#utility.yul\":5223:5229   */\n      dup5\n        /* \"#utility.yul\":5179:5251   */\n      tag_53\n      jump\t// in\n    tag_115:\n        /* \"#utility.yul\":4926:5258   */\n      swap4\n      swap3\n      pop\n      pop\n      pop\n      jump\t// out\n        /* \"#utility.yul\":5264:5362   */\n    tag_54:\n        /* \"#utility.yul\":5315:5321   */\n      0x00\n        /* \"#utility.yul\":5349:5354   */\n      dup2\n        /* \"#utility.yul\":5343:5355   */\n      mload\n        /* \"#utility.yul\":5333:5355   */\n      swap1\n      pop\n        /* \"#utility.yul\":5264:5362   */\n      swap2\n      swap1\n      pop\n      jump\t// out\n        /* \"#utility.yul\":5368:5675   */\n    tag_55:\n        /* \"#utility.yul\":5436:5437   */\n      0x00\n        /* \"#utility.yul\":5446:5559   */\n    tag_118:\n        /* \"#utility.yul\":5460:5466   */\n      dup4\n        /* \"#utility.yul\":5457:5458   */\n      dup2\n        /* \"#utility.yul\":5454:5467   */\n      lt\n        /* \"#utility.yul\":5446:5559   */\n      iszero\n      tag_120\n      jumpi\n        /* \"#utility.yul\":5545:5546   */\n      dup1\n        /* \"#utility.yul\":5540:5543   */\n      dup3\n        /* \"#utility.yul\":5536:5547   */\n      add\n        /* \"#utility.yul\":5530:5548   */\n      mload\n        /* \"#utility.yul\":5526:5527   */\n      dup2\n        /* \"#utility.yul\":5521:5524   */\n      dup5\n        /* \"#utility.yul\":5517:5528   */\n      add\n        /* \"#utility.yul\":5510:5549   */\n      mstore\n        /* \"#utility.yul\":5482:5484   */\n      0x20\n        /* \"#utility.yul\":5479:5480   */\n      dup2\n        /* \"#utility.yul\":5475:5485   */\n      add\n        /* \"#utility.yul\":5470:5485   */\n      swap1\n      pop\n        /* \"#utility.yul\":5446:5559   */\n      jump(tag_118)\n    tag_120:\n        /* \"#utility.yul\":5577:5583   */\n      dup4\n        /* \"#utility.yul\":5574:5575   */\n      dup2\n        /* \"#utility.yul\":5571:5584   */\n      gt\n        /* \"#utility.yul\":5568:5669   */\n      iszero\n      tag_121\n      jumpi\n        /* \"#utility.yul\":5657:5658   */\n      0x00\n        /* \"#utility.yul\":5648:5654   */\n      dup5\n        /* \"#utility.yul\":5643:5646   */\n      dup5\n        /* \"#utility.yul\":5639:5655   */\n      add\n        /* \"#utility.yul\":5632:5659   */\n      mstore\n        /* \"#utility.yul\":5568:5669   */\n    tag_121:\n        /* \"#utility.yul\":5417:5675   */\n      pop\n        /* \"#utility.yul\":5368:5675   */\n      pop\n      pop\n      pop\n      jump\t// out\n        /* \"#utility.yul\":5681:6054   */\n    tag_56:\n        /* \"#utility.yul\":5785:5788   */\n      0x00\n        /* \"#utility.yul\":5813:5851   */\n      tag_123\n        /* \"#utility.yul\":5845:5850   */\n      dup3\n        /* \"#utility.yul\":5813:5851   */\n      tag_54\n      jump\t// in\n    tag_123:\n        /* \"#utility.yul\":5867:5955   */\n      tag_124\n        /* \"#utility.yul\":5948:5954   */\n      dup2\n        /* \"#utility.yul\":5943:5946   */\n      dup6\n        /* \"#utility.yul\":5867:5955   */\n      tag_47\n      jump\t// in\n    tag_124:\n        /* \"#utility.yul\":5860:5955   */\n      swap4\n      pop\n        /* \"#utility.yul\":5964:6016   */\n      tag_125\n        /* \"#utility.yul\":6009:6015   */\n      dup2\n        /* \"#utility.yul\":6004:6007   */\n      dup6\n        /* \"#utility.yul\":5997:6001   */\n      0x20\n        /* \"#utility.yul\":5990:5995   */\n      dup7\n        /* \"#utility.yul\":5986:6002   */\n      add\n        /* \"#utility.yul\":5964:6016   */\n      tag_55\n      jump\t// in\n    tag_125:\n        /* \"#utility.yul\":6041:6047   */\n      dup1\n        /* \"#utility.yul\":6036:6039   */\n      dup5\n        /* \"#utility.yul\":6032:6048   */\n      add\n        /* \"#utility.yul\":6025:6048   */\n      swap2\n      pop\n        /* \"#utility.yul\":5789:6054   */\n      pop\n        /* \"#utility.yul\":5681:6054   */\n      swap3\n      swap2\n      pop\n      pop\n      jump\t// out\n        /* \"#utility.yul\":6060:6331   */\n    tag_26:\n        /* \"#utility.yul\":6190:6193   */\n      0x00\n        /* \"#utility.yul\":6212:6305   */\n      tag_127\n        /* \"#utility.yul\":6301:6304   */\n      dup3\n        /* \"#utility.yul\":6292:6298   */\n      dup5\n        /* \"#utility.yul\":6212:6305   */\n      tag_56\n      jump\t// in\n    tag_127:\n        /* \"#utility.yul\":6205:6305   */\n      swap2\n      pop\n        /* \"#utility.yul\":6322:6325   */\n      dup2\n        /* \"#utility.yul\":6315:6325   */\n      swap1\n      pop\n        /* \"#utility.yul\":6060:6331   */\n      swap3\n      swap2\n      pop\n      pop\n      jump\t// out\n        /* \"#utility.yul\":6337:6427   */\n    tag_57:\n        /* \"#utility.yul\":6371:6378   */\n      0x00\n        /* \"#utility.yul\":6414:6419   */\n      dup2\n        /* \"#utility.yul\":6407:6420   */\n      iszero\n        /* \"#utility.yul\":6400:6421   */\n      iszero\n        /* \"#utility.yul\":6389:6421   */\n      swap1\n      pop\n        /* \"#utility.yul\":6337:6427   */\n      swap2\n      swap1\n      pop\n      jump\t// out\n        /* \"#utility.yul\":6433:6542   */\n    tag_58:\n        /* \"#utility.yul\":6514:6535   */\n      tag_130\n        /* \"#utility.yul\":6529:6534   */\n      dup2\n        /* \"#utility.yul\":6514:6535   */\n      tag_57\n      jump\t// in\n    tag_130:\n        /* \"#utility.yul\":6509:6512   */\n      dup3\n        /* \"#utility.yul\":6502:6536   */\n      mstore\n        /* \"#utility.yul\":6433:6542   */\n      pop\n      pop\n      jump\t// out\n        /* \"#utility.yul\":6548:6716   */\n    tag_59:\n        /* \"#utility.yul\":6631:6642   */\n      0x00\n        /* \"#utility.yul\":6665:6671   */\n      dup3\n        /* \"#utility.yul\":6660:6663   */\n      dup3\n        /* \"#utility.yul\":6653:6672   */\n      mstore\n        /* \"#utility.yul\":6705:6709   */\n      0x20\n        /* \"#utility.yul\":6700:6703   */\n      dup3\n        /* \"#utility.yul\":6696:6710   */\n      add\n        /* \"#utility.yul\":6681:6710   */\n      swap1\n      pop\n        /* \"#utility.yul\":6548:6716   */\n      swap3\n      swap2\n      pop\n      pop\n      jump\t// out\n        /* \"#utility.yul\":6722:6824   */\n    tag_60:\n        /* \"#utility.yul\":6763:6769   */\n      0x00\n        /* \"#utility.yul\":6814:6816   */\n      0x1f\n        /* \"#utility.yul\":6810:6817   */\n      not\n        /* \"#utility.yul\":6805:6807   */\n      0x1f\n        /* \"#utility.yul\":6798:6803   */\n      dup4\n        /* \"#utility.yul\":6794:6808   */\n      add\n        /* \"#utility.yul\":6790:6818   */\n      and\n        /* \"#utility.yul\":6780:6818   */\n      swap1\n      pop\n        /* \"#utility.yul\":6722:6824   */\n      swap2\n      swap1\n      pop\n      jump\t// out\n        /* \"#utility.yul\":6830:7190   */\n    tag_61:\n        /* \"#utility.yul\":6916:6919   */\n      0x00\n        /* \"#utility.yul\":6944:6982   */\n      tag_134\n        /* \"#utility.yul\":6976:6981   */\n      dup3\n        /* \"#utility.yul\":6944:6982   */\n      tag_54\n      jump\t// in\n    tag_134:\n        /* \"#utility.yul\":6998:7068   */\n      tag_135\n        /* \"#utility.yul\":7061:7067   */\n      dup2\n        /* \"#utility.yul\":7056:7059   */\n      dup6\n        /* \"#utility.yul\":6998:7068   */\n      tag_59\n      jump\t// in\n    tag_135:\n        /* \"#utility.yul\":6991:7068   */\n      swap4\n      pop\n        /* \"#utility.yul\":7077:7129   */\n      tag_136\n        /* \"#utility.yul\":7122:7128   */\n      dup2\n        /* \"#utility.yul\":7117:7120   */\n      dup6\n        /* \"#utility.yul\":7110:7114   */\n      0x20\n        /* \"#utility.yul\":7103:7108   */\n      dup7\n        /* \"#utility.yul\":7099:7115   */\n      add\n        /* \"#utility.yul\":7077:7129   */\n      tag_55\n      jump\t// in\n    tag_136:\n        /* \"#utility.yul\":7154:7183   */\n      tag_137\n        /* \"#utility.yul\":7176:7182   */\n      dup2\n        /* \"#utility.yul\":7154:7183   */\n      tag_60\n      jump\t// in\n    tag_137:\n        /* \"#utility.yul\":7149:7152   */\n      dup5\n        /* \"#utility.yul\":7145:7184   */\n      add\n        /* \"#utility.yul\":7138:7184   */\n      swap2\n      pop\n        /* \"#utility.yul\":6920:7190   */\n      pop\n        /* \"#utility.yul\":6830:7190   */\n      swap3\n      swap2\n      pop\n      pop\n      jump\t// out\n        /* \"#utility.yul\":7196:7603   */\n    tag_33:\n        /* \"#utility.yul\":7329:7333   */\n      0x00\n        /* \"#utility.yul\":7367:7369   */\n      0x40\n        /* \"#utility.yul\":7356:7365   */\n      dup3\n        /* \"#utility.yul\":7352:7370   */\n      add\n        /* \"#utility.yul\":7344:7370   */\n      swap1\n      pop\n        /* \"#utility.yul\":7380:7445   */\n      tag_139\n        /* \"#utility.yul\":7442:7443   */\n      0x00\n        /* \"#utility.yul\":7431:7440   */\n      dup4\n        /* \"#utility.yul\":7427:7444   */\n      add\n        /* \"#utility.yul\":7418:7424   */\n      dup6\n        /* \"#utility.yul\":7380:7445   */\n      tag_58\n      jump\t// in\n    tag_139:\n        /* \"#utility.yul\":7492:7501   */\n      dup2\n        /* \"#utility.yul\":7486:7490   */\n      dup2\n        /* \"#utility.yul\":7482:7502   */\n      sub\n        /* \"#utility.yul\":7477:7479   */\n      0x20\n        /* \"#utility.yul\":7466:7475   */\n      dup4\n        /* \"#utility.yul\":7462:7480   */\n      add\n        /* \"#utility.yul\":7455:7503   */\n      mstore\n        /* \"#utility.yul\":7520:7596   */\n      tag_140\n        /* \"#utility.yul\":7591:7595   */\n      dup2\n        /* \"#utility.yul\":7582:7588   */\n      dup5\n        /* \"#utility.yul\":7520:7596   */\n      tag_61\n      jump\t// in\n    tag_140:\n        /* \"#utility.yul\":7512:7596   */\n      swap1\n      pop\n        /* \"#utility.yul\":7196:7603   */\n      swap4\n      swap3\n      pop\n      pop\n      pop\n      jump\t// out\n\n    auxdata: 0xa2646970667358221220b49ae943aad5856c39018b3ce5c954bc7e8ee9c2c77a2be1c2d128fd5fb216c864736f6c634300080d0033\n}\n",
				"bytecode": {
					"linkReferences": {},
					"object": "608060405234801561001057600080fd5b50610655806100206000396000f3fe6080604052600436106100295760003560e01c8063312e5a611461002e578063e0587a351461004a575b600080fd5b61004860048036038101906100439190610304565b610073565b005b34801561005657600080fd5b50610071600480360381019061006c91906103a5565b610123565b005b60008173ffffffffffffffffffffffffffffffffffffffff163460405161009990610429565b60006040518083038185875af1925050503d80600081146100d6576040519150601f19603f3d011682016040523d82523d6000602084013e6100db565b606091505b505090508061011f576040517f08c379a00000000000000000000000000000000000000000000000000000000081526004016101169061049b565b60405180910390fd5b5050565b6000808473ffffffffffffffffffffffffffffffffffffffff1684846040516024016101509291906104ca565b6040516020818303038152906040527ff7be8475000000000000000000000000000000000000000000000000000000007bffffffffffffffffffffffffffffffffffffffffffffffffffffffff19166020820180517bffffffffffffffffffffffffffffffffffffffffffffffffffffffff83818316178352505050506040516101da9190610562565b6000604051808303816000865af19150503d8060008114610217576040519150601f19603f3d011682016040523d82523d6000602084013e61021c565b606091505b509150915081610261576040517f08c379a00000000000000000000000000000000000000000000000000000000081526004016102589061049b565b60405180910390fd5b7f33e31ffe1621482bf566c6a5a5a785ba5ca2012a16a4054402e91fd8adb6953c82826040516102929291906105ef565b60405180910390a15050505050565b600080fd5b600073ffffffffffffffffffffffffffffffffffffffff82169050919050565b60006102d1826102a6565b9050919050565b6102e1816102c6565b81146102ec57600080fd5b50565b6000813590506102fe816102d8565b92915050565b60006020828403121561031a576103196102a1565b5b6000610328848285016102ef565b91505092915050565b600061033c826102a6565b9050919050565b61034c81610331565b811461035757600080fd5b50565b60008135905061036981610343565b92915050565b6000819050919050565b6103828161036f565b811461038d57600080fd5b50565b60008135905061039f81610379565b92915050565b6000806000606084860312156103be576103bd6102a1565b5b60006103cc8682870161035a565b93505060206103dd86828701610390565b92505060406103ee86828701610390565b9150509250925092565b600081905092915050565b50565b60006104136000836103f8565b915061041e82610403565b600082019050919050565b600061043482610406565b9150819050919050565b600082825260208201905092915050565b7f6661696c656420746f207472616e736665722065746865720000000000000000600082015250565b600061048560188361043e565b91506104908261044f565b602082019050919050565b600060208201905081810360008301526104b481610478565b9050919050565b6104c48161036f565b82525050565b60006040820190506104df60008301856104bb565b6104ec60208301846104bb565b9392505050565b600081519050919050565b60005b8381101561051c578082015181840152602081019050610501565b8381111561052b576000848401525b50505050565b600061053c826104f3565b61054681856103f8565b93506105568185602086016104fe565b80840191505092915050565b600061056e8284610531565b915081905092915050565b60008115159050919050565b61058e81610579565b82525050565b600082825260208201905092915050565b6000601f19601f8301169050919050565b60006105c1826104f3565b6105cb8185610594565b93506105db8185602086016104fe565b6105e4816105a5565b840191505092915050565b60006040820190506106046000830185610585565b818103602083015261061681846105b6565b9050939250505056fea2646970667358221220b49ae943aad5856c39018b3ce5c954bc7e8ee9c2c77a2be1c2d128fd5fb216c864736f6c634300080d0033",
					"opcodes": "PUSH1 0x80 PUSH1 0x40 MSTORE CALLVALUE DUP1 ISZERO PUSH2 0x10 JUMPI PUSH1 0x0 DUP1 REVERT JUMPDEST POP PUSH2 0x655 DUP1 PUSH2 0x20 PUSH1 0x0 CODECOPY PUSH1 0x0 RETURN INVALID PUSH1 0x80 PUSH1 0x40 MSTORE PUSH1 0x4 CALLDATASIZE LT PUSH2 0x29 JUMPI PUSH1 0x0 CALLDATALOAD PUSH1 0xE0 SHR DUP1 PUSH4 0x312E5A61 EQ PUSH2 0x2E JUMPI DUP1 PUSH4 0xE0587A35 EQ PUSH2 0x4A JUMPI JUMPDEST PUSH1 0x0 DUP1 REVERT JUMPDEST PUSH2 0x48 PUSH1 0x4 DUP1 CALLDATASIZE SUB DUP2 ADD SWAP1 PUSH2 0x43 SWAP2 SWAP1 PUSH2 0x304 JUMP JUMPDEST PUSH2 0x73 JUMP JUMPDEST STOP JUMPDEST CALLVALUE DUP1 ISZERO PUSH2 0x56 JUMPI PUSH1 0x0 DUP1 REVERT JUMPDEST POP PUSH2 0x71 PUSH1 0x4 DUP1 CALLDATASIZE SUB DUP2 ADD SWAP1 PUSH2 0x6C SWAP2 SWAP1 PUSH2 0x3A5 JUMP JUMPDEST PUSH2 0x123 JUMP JUMPDEST STOP JUMPDEST PUSH1 0x0 DUP2 PUSH20 0xFFFFFFFFFFFFFFFFFFFFFFFFFFFFFFFFFFFFFFFF AND CALLVALUE PUSH1 0x40 MLOAD PUSH2 0x99 SWAP1 PUSH2 0x429 JUMP JUMPDEST PUSH1 0x0 PUSH1 0x40 MLOAD DUP1 DUP4 SUB DUP2 DUP6 DUP8 GAS CALL SWAP3 POP POP POP RETURNDATASIZE DUP1 PUSH1 0x0 DUP2 EQ PUSH2 0xD6 JUMPI PUSH1 0x40 MLOAD SWAP2 POP PUSH1 0x1F NOT PUSH1 0x3F RETURNDATASIZE ADD AND DUP3 ADD PUSH1 0x40 MSTORE RETURNDATASIZE DUP3 MSTORE RETURNDATASIZE PUSH1 0x0 PUSH1 0x20 DUP5 ADD RETURNDATACOPY PUSH2 0xDB JUMP JUMPDEST PUSH1 0x60 SWAP2 POP JUMPDEST POP POP SWAP1 POP DUP1 PUSH2 0x11F JUMPI PUSH1 0x40 MLOAD PUSH32 0x8C379A000000000000000000000000000000000000000000000000000000000 DUP2 MSTORE PUSH1 0x4 ADD PUSH2 0x116 SWAP1 PUSH2 0x49B JUMP JUMPDEST PUSH1 0x40 MLOAD DUP1 SWAP2 SUB SWAP1 REVERT JUMPDEST POP POP JUMP JUMPDEST PUSH1 0x0 DUP1 DUP5 PUSH20 0xFFFFFFFFFFFFFFFFFFFFFFFFFFFFFFFFFFFFFFFF AND DUP5 DUP5 PUSH1 0x40 MLOAD PUSH1 0x24 ADD PUSH2 0x150 SWAP3 SWAP2 SWAP1 PUSH2 0x4CA JUMP JUMPDEST PUSH1 0x40 MLOAD PUSH1 0x20 DUP2 DUP4 SUB SUB DUP2 MSTORE SWAP1 PUSH1 0x40 MSTORE PUSH32 0xF7BE847500000000000000000000000000000000000000000000000000000000 PUSH28 0xFFFFFFFFFFFFFFFFFFFFFFFFFFFFFFFFFFFFFFFFFFFFFFFFFFFFFFFF NOT AND PUSH1 0x20 DUP3 ADD DUP1 MLOAD PUSH28 0xFFFFFFFFFFFFFFFFFFFFFFFFFFFFFFFFFFFFFFFFFFFFFFFFFFFFFFFF DUP4 DUP2 DUP4 AND OR DUP4 MSTORE POP POP POP POP PUSH1 0x40 MLOAD PUSH2 0x1DA SWAP2 SWAP1 PUSH2 0x562 JUMP JUMPDEST PUSH1 0x0 PUSH1 0x40 MLOAD DUP1 DUP4 SUB DUP2 PUSH1 0x0 DUP7 GAS CALL SWAP2 POP POP RETURNDATASIZE DUP1 PUSH1 0x0 DUP2 EQ PUSH2 0x217 JUMPI PUSH1 0x40 MLOAD SWAP2 POP PUSH1 0x1F NOT PUSH1 0x3F RETURNDATASIZE ADD AND DUP3 ADD PUSH1 0x40 MSTORE RETURNDATASIZE DUP3 MSTORE RETURNDATASIZE PUSH1 0x0 PUSH1 0x20 DUP5 ADD RETURNDATACOPY PUSH2 0x21C JUMP JUMPDEST PUSH1 0x60 SWAP2 POP JUMPDEST POP SWAP2 POP SWAP2 POP DUP2 PUSH2 0x261 JUMPI PUSH1 0x40 MLOAD PUSH32 0x8C379A000000000000000000000000000000000000000000000000000000000 DUP2 MSTORE PUSH1 0x4 ADD PUSH2 0x258 SWAP1 PUSH2 0x49B JUMP JUMPDEST PUSH1 0x40 MLOAD DUP1 SWAP2 SUB SWAP1 REVERT JUMPDEST PUSH32 0x33E31FFE1621482BF566C6A5A5A785BA5CA2012A16A4054402E91FD8ADB6953C DUP3 DUP3 PUSH1 0x40 MLOAD PUSH2 0x292 SWAP3 SWAP2 SWAP1 PUSH2 0x5EF JUMP JUMPDEST PUSH1 0x40 MLOAD DUP1 SWAP2 SUB SWAP1 LOG1 POP POP POP POP POP JUMP JUMPDEST PUSH1 0x0 DUP1 REVERT JUMPDEST PUSH1 0x0 PUSH20 0xFFFFFFFFFFFFFFFFFFFFFFFFFFFFFFFFFFFFFFFF DUP3 AND SWAP1 POP SWAP2 SWAP1 POP JUMP JUMPDEST PUSH1 0x0 PUSH2 0x2D1 DUP3 PUSH2 0x2A6 JUMP JUMPDEST SWAP1 POP SWAP2 SWAP1 POP JUMP JUMPDEST PUSH2 0x2E1 DUP2 PUSH2 0x2C6 JUMP JUMPDEST DUP2 EQ PUSH2 0x2EC JUMPI PUSH1 0x0 DUP1 REVERT JUMPDEST POP JUMP JUMPDEST PUSH1 0x0 DUP2 CALLDATALOAD SWAP1 POP PUSH2 0x2FE DUP2 PUSH2 0x2D8 JUMP JUMPDEST SWAP3 SWAP2 POP POP JUMP JUMPDEST PUSH1 0x0 PUSH1 0x20 DUP3 DUP5 SUB SLT ISZERO PUSH2 0x31A JUMPI PUSH2 0x319 PUSH2 0x2A1 JUMP JUMPDEST JUMPDEST PUSH1 0x0 PUSH2 0x328 DUP5 DUP3 DUP6 ADD PUSH2 0x2EF JUMP JUMPDEST SWAP2 POP POP SWAP3 SWAP2 POP POP JUMP JUMPDEST PUSH1 0x0 PUSH2 0x33C DUP3 PUSH2 0x2A6 JUMP JUMPDEST SWAP1 POP SWAP2 SWAP1 POP JUMP JUMPDEST PUSH2 0x34C DUP2 PUSH2 0x331 JUMP JUMPDEST DUP2 EQ PUSH2 0x357 JUMPI PUSH1 0x0 DUP1 REVERT JUMPDEST POP JUMP JUMPDEST PUSH1 0x0 DUP2 CALLDATALOAD SWAP1 POP PUSH2 0x369 DUP2 PUSH2 0x343 JUMP JUMPDEST SWAP3 SWAP2 POP POP JUMP JUMPDEST PUSH1 0x0 DUP2 SWAP1 POP SWAP2 SWAP1 POP JUMP JUMPDEST PUSH2 0x382 DUP2 PUSH2 0x36F JUMP JUMPDEST DUP2 EQ PUSH2 0x38D JUMPI PUSH1 0x0 DUP1 REVERT JUMPDEST POP JUMP JUMPDEST PUSH1 0x0 DUP2 CALLDATALOAD SWAP1 POP PUSH2 0x39F DUP2 PUSH2 0x379 JUMP JUMPDEST SWAP3 SWAP2 POP POP JUMP JUMPDEST PUSH1 0x0 DUP1 PUSH1 0x0 PUSH1 0x60 DUP5 DUP7 SUB SLT ISZERO PUSH2 0x3BE JUMPI PUSH2 0x3BD PUSH2 0x2A1 JUMP JUMPDEST JUMPDEST PUSH1 0x0 PUSH2 0x3CC DUP7 DUP3 DUP8 ADD PUSH2 0x35A JUMP JUMPDEST SWAP4 POP POP PUSH1 0x20 PUSH2 0x3DD DUP7 DUP3 DUP8 ADD PUSH2 0x390 JUMP JUMPDEST SWAP3 POP POP PUSH1 0x40 PUSH2 0x3EE DUP7 DUP3 DUP8 ADD PUSH2 0x390 JUMP JUMPDEST SWAP2 POP POP SWAP3 POP SWAP3 POP SWAP3 JUMP JUMPDEST PUSH1 0x0 DUP2 SWAP1 POP SWAP3 SWAP2 POP POP JUMP JUMPDEST POP JUMP JUMPDEST PUSH1 0x0 PUSH2 0x413 PUSH1 0x0 DUP4 PUSH2 0x3F8 JUMP JUMPDEST SWAP2 POP PUSH2 0x41E DUP3 PUSH2 0x403 JUMP JUMPDEST PUSH1 0x0 DUP3 ADD SWAP1 POP SWAP2 SWAP1 POP JUMP JUMPDEST PUSH1 0x0 PUSH2 0x434 DUP3 PUSH2 0x406 JUMP JUMPDEST SWAP2 POP DUP2 SWAP1 POP SWAP2 SWAP1 POP JUMP JUMPDEST PUSH1 0x0 DUP3 DUP3 MSTORE PUSH1 0x20 DUP3 ADD SWAP1 POP SWAP3 SWAP2 POP POP JUMP JUMPDEST PUSH32 0x6661696C656420746F207472616E736665722065746865720000000000000000 PUSH1 0x0 DUP3 ADD MSTORE POP JUMP JUMPDEST PUSH1 0x0 PUSH2 0x485 PUSH1 0x18 DUP4 PUSH2 0x43E JUMP JUMPDEST SWAP2 POP PUSH2 0x490 DUP3 PUSH2 0x44F JUMP JUMPDEST PUSH1 0x20 DUP3 ADD SWAP1 POP SWAP2 SWAP1 POP JUMP JUMPDEST PUSH1 0x0 PUSH1 0x20 DUP3 ADD SWAP1 POP DUP2 DUP2 SUB PUSH1 0x0 DUP4 ADD MSTORE PUSH2 0x4B4 DUP2 PUSH2 0x478 JUMP JUMPDEST SWAP1 POP SWAP2 SWAP1 POP JUMP JUMPDEST PUSH2 0x4C4 DUP2 PUSH2 0x36F JUMP JUMPDEST DUP3 MSTORE POP POP JUMP JUMPDEST PUSH1 0x0 PUSH1 0x40 DUP3 ADD SWAP1 POP PUSH2 0x4DF PUSH1 0x0 DUP4 ADD DUP6 PUSH2 0x4BB JUMP JUMPDEST PUSH2 0x4EC PUSH1 0x20 DUP4 ADD DUP5 PUSH2 0x4BB JUMP JUMPDEST SWAP4 SWAP3 POP POP POP JUMP JUMPDEST PUSH1 0x0 DUP2 MLOAD SWAP1 POP SWAP2 SWAP1 POP JUMP JUMPDEST PUSH1 0x0 JUMPDEST DUP4 DUP2 LT ISZERO PUSH2 0x51C JUMPI DUP1 DUP3 ADD MLOAD DUP2 DUP5 ADD MSTORE PUSH1 0x20 DUP2 ADD SWAP1 POP PUSH2 0x501 JUMP JUMPDEST DUP4 DUP2 GT ISZERO PUSH2 0x52B JUMPI PUSH1 0x0 DUP5 DUP5 ADD MSTORE JUMPDEST POP POP POP POP JUMP JUMPDEST PUSH1 0x0 PUSH2 0x53C DUP3 PUSH2 0x4F3 JUMP JUMPDEST PUSH2 0x546 DUP2 DUP6 PUSH2 0x3F8 JUMP JUMPDEST SWAP4 POP PUSH2 0x556 DUP2 DUP6 PUSH1 0x20 DUP7 ADD PUSH2 0x4FE JUMP JUMPDEST DUP1 DUP5 ADD SWAP2 POP POP SWAP3 SWAP2 POP POP JUMP JUMPDEST PUSH1 0x0 PUSH2 0x56E DUP3 DUP5 PUSH2 0x531 JUMP JUMPDEST SWAP2 POP DUP2 SWAP1 POP SWAP3 SWAP2 POP POP JUMP JUMPDEST PUSH1 0x0 DUP2 ISZERO ISZERO SWAP1 POP SWAP2 SWAP1 POP JUMP JUMPDEST PUSH2 0x58E DUP2 PUSH2 0x579 JUMP JUMPDEST DUP3 MSTORE POP POP JUMP JUMPDEST PUSH1 0x0 DUP3 DUP3 MSTORE PUSH1 0x20 DUP3 ADD SWAP1 POP SWAP3 SWAP2 POP POP JUMP JUMPDEST PUSH1 0x0 PUSH1 0x1F NOT PUSH1 0x1F DUP4 ADD AND SWAP1 POP SWAP2 SWAP1 POP JUMP JUMPDEST PUSH1 0x0 PUSH2 0x5C1 DUP3 PUSH2 0x4F3 JUMP JUMPDEST PUSH2 0x5CB DUP2 DUP6 PUSH2 0x594 JUMP JUMPDEST SWAP4 POP PUSH2 0x5DB DUP2 DUP6 PUSH1 0x20 DUP7 ADD PUSH2 0x4FE JUMP JUMPDEST PUSH2 0x5E4 DUP2 PUSH2 0x5A5 JUMP JUMPDEST DUP5 ADD SWAP2 POP POP SWAP3 SWAP2 POP POP JUMP JUMPDEST PUSH1 0x0 PUSH1 0x40 DUP3 ADD SWAP1 POP PUSH2 0x604 PUSH1 0x0 DUP4 ADD DUP6 PUSH2 0x585 JUMP JUMPDEST DUP2 DUP2 SUB PUSH1 0x20 DUP4 ADD MSTORE PUSH2 0x616 DUP2 DUP5 PUSH2 0x5B6 JUMP JUMPDEST SWAP1 POP SWAP4 SWAP3 POP POP POP JUMP INVALID LOG2 PUSH5 0x6970667358 0x22 SLT KECCAK256 0xB4 SWAP11 0xE9 NUMBER 0xAA 0xD5 DUP6 PUSH13 0x39018B3CE5C954BC7E8EE9C2C7 PUSH27 0x2BE1C2D128FD5FB216C864736F6C634300080D0033000000000000 "
				},
				"gasEstimates": {
					"creation": {
						"codeDepositCost": "324200",
						"executionCost": "362",
						"totalCost": "324562"
					},
					"external": {
						"call1(address,uint256,uint256)": "infinite",
						"transfer1(address)": "infinite"
					}
				},
				"methodIdentifiers": {
					"call1(address,uint256,uint256)": "e0587a35",
					"transfer1(address)": "312e5a61"
				}
			},
			"storageLayout": {
				"storage": [],
				"types": null
			},
			"userdoc": {
				"kind": "user",
				"methods": {},
				"version": 1
			}
		}
	}
}