{
	"TestStruct.sol": {
		"TestStruct": {
			"abi": [
				{
					"inputs": [
						{
							"internalType": "address",
							"name": "",
							"type": "address"
						}
					],
					"name": "balanceReceived",
					"outputs": [
						{
							"internalType": "uint256",
							"name": "totalBalance",
							"type": "uint256"
						},
						{
							"internalType": "uint256",
							"name": "numDeposits",
							"type": "uint256"
						},
						{
							"internalType": "uint256",
							"name": "numWithdrawals",
							"type": "uint256"
						}
					],
					"stateMutability": "view",
					"type": "function"
				},
				{
					"inputs": [],
					"name": "depsoitMoney",
					"outputs": [],
					"stateMutability": "payable",
					"type": "function"
				},
				{
					"inputs": [],
					"name": "getBalance",
					"outputs": [
						{
							"internalType": "uint256",
							"name": "",
							"type": "uint256"
						}
					],
					"stateMutability": "view",
					"type": "function"
				},
				{
					"inputs": [
						{
							"internalType": "address",
							"name": "_addr",
							"type": "address"
						}
					],
					"name": "getBalanceAtAddress",
					"outputs": [
						{
							"internalType": "uint256",
							"name": "",
							"type": "uint256"
						}
					],
					"stateMutability": "view",
					"type": "function"
				},
				{
					"inputs": [
						{
							"internalType": "address payable",
							"name": "_to",
							"type": "address"
						}
					],
					"name": "withdrawAllMoney",
					"outputs": [],
					"stateMutability": "nonpayable",
					"type": "function"
				},
				{
					"inputs": [
						{
							"internalType": "address payable",
							"name": "_to",
							"type": "address"
						},
						{
							"internalType": "uint256",
							"name": "_amount",
							"type": "uint256"
						}
					],
					"name": "withdrawMoney",
					"outputs": [],
					"stateMutability": "payable",
					"type": "function"
				}
			],
			"devdoc": {
				"kind": "dev",
				"methods": {},
				"version": 1
			},
			"evm": {
				"assembly": "    /* \"TestStruct.sol\":27:2575  contract TestStruct\r... */\n  mstore(0x40, 0x80)\n  callvalue\n  dup1\n  iszero\n  tag_1\n  jumpi\n  0x00\n  dup1\n  revert\ntag_1:\n  pop\n  dataSize(sub_0)\n  dup1\n  dataOffset(sub_0)\n  0x00\n  codecopy\n  0x00\n  return\nstop\n\nsub_0: assembly {\n        /* \"TestStruct.sol\":27:2575  contract TestStruct\r... */\n      mstore(0x40, 0x80)\n      jumpi(tag_1, lt(calldatasize, 0x04))\n      shr(0xe0, calldataload(0x00))\n      dup1\n      0x0adec93c\n      eq\n      tag_2\n      jumpi\n      dup1\n      0x12065fe0\n      eq\n      tag_3\n      jumpi\n      dup1\n      0x27176085\n      eq\n      tag_4\n      jumpi\n      dup1\n      0xa2fd040a\n      eq\n      tag_5\n      jumpi\n      dup1\n      0xd18a42e1\n      eq\n      tag_6\n      jumpi\n      dup1\n      0xf274c897\n      eq\n      tag_7\n      jumpi\n    tag_1:\n      0x00\n      dup1\n      revert\n        /* \"TestStruct.sol\":2231:2572  function withdrawAllMoney(address payable _to) public\r... */\n    tag_2:\n      callvalue\n      dup1\n      iszero\n      tag_8\n      jumpi\n      0x00\n      dup1\n      revert\n    tag_8:\n      pop\n      tag_9\n      0x04\n      dup1\n      calldatasize\n      sub\n      dup2\n      add\n      swap1\n      tag_10\n      swap2\n      swap1\n      tag_11\n      jump\t// in\n    tag_10:\n      tag_12\n      jump\t// in\n    tag_9:\n      stop\n        /* \"TestStruct.sol\":480:580  function getBalance() public view returns(uint)\r... */\n    tag_3:\n      callvalue\n      dup1\n      iszero\n      tag_13\n      jumpi\n      0x00\n      dup1\n      revert\n    tag_13:\n      pop\n      tag_14\n      tag_15\n      jump\t// in\n    tag_14:\n      mload(0x40)\n      tag_16\n      swap2\n      swap1\n      tag_17\n      jump\t// in\n    tag_16:\n      mload(0x40)\n      dup1\n      swap2\n      sub\n      swap1\n      return\n        /* \"TestStruct.sol\":1191:1543  function depsoitMoney() public payable {\r... */\n    tag_4:\n      tag_18\n      tag_19\n      jump\t// in\n    tag_18:\n      stop\n        /* \"TestStruct.sol\":588:719  function getBalanceAtAddress(address _addr) public view returns(uint) {\r... */\n    tag_5:\n      callvalue\n      dup1\n      iszero\n      tag_20\n      jumpi\n      0x00\n      dup1\n      revert\n    tag_20:\n      pop\n      tag_21\n      0x04\n      dup1\n      calldatasize\n      sub\n      dup2\n      add\n      swap1\n      tag_22\n      swap2\n      swap1\n      tag_23\n      jump\t// in\n    tag_22:\n      tag_24\n      jump\t// in\n    tag_21:\n      mload(0x40)\n      tag_25\n      swap2\n      swap1\n      tag_17\n      jump\t// in\n    tag_25:\n      mload(0x40)\n      dup1\n      swap2\n      sub\n      swap1\n      return\n        /* \"TestStruct.sol\":420:471  mapping (address => Balance) public balanceReceived */\n    tag_6:\n      callvalue\n      dup1\n      iszero\n      tag_26\n      jumpi\n      0x00\n      dup1\n      revert\n    tag_26:\n      pop\n      tag_27\n      0x04\n      dup1\n      calldatasize\n      sub\n      dup2\n      add\n      swap1\n      tag_28\n      swap2\n      swap1\n      tag_23\n      jump\t// in\n    tag_28:\n      tag_29\n      jump\t// in\n    tag_27:\n      mload(0x40)\n      tag_30\n      swap4\n      swap3\n      swap2\n      swap1\n      tag_31\n      jump\t// in\n    tag_30:\n      mload(0x40)\n      dup1\n      swap2\n      sub\n      swap1\n      return\n        /* \"TestStruct.sol\":1555:2223  function withdrawMoney(address payable _to, uint _amount) public payable\r... */\n    tag_7:\n      tag_32\n      0x04\n      dup1\n      calldatasize\n      sub\n      dup2\n      add\n      swap1\n      tag_33\n      swap2\n      swap1\n      tag_34\n      jump\t// in\n    tag_33:\n      tag_35\n      jump\t// in\n    tag_32:\n      stop\n        /* \"TestStruct.sol\":2231:2572  function withdrawAllMoney(address payable _to) public\r... */\n    tag_12:\n        /* \"TestStruct.sol\":2362:2380  uint balanceToSend */\n      0x00\n        /* \"TestStruct.sol\":2383:2398  balanceReceived */\n      dup1\n        /* \"TestStruct.sol\":2383:2410  balanceReceived[msg.sender] */\n      0x00\n        /* \"TestStruct.sol\":2399:2409  msg.sender */\n      caller\n        /* \"TestStruct.sol\":2383:2410  balanceReceived[msg.sender] */\n      0xffffffffffffffffffffffffffffffffffffffff\n      and\n      0xffffffffffffffffffffffffffffffffffffffff\n      and\n      dup2\n      mstore\n      0x20\n      add\n      swap1\n      dup2\n      mstore\n      0x20\n      add\n      0x00\n      keccak256\n        /* \"TestStruct.sol\":2383:2423  balanceReceived[msg.sender].totalBalance */\n      0x00\n      add\n      sload\n        /* \"TestStruct.sol\":2362:2423  uint balanceToSend = balanceReceived[msg.sender].totalBalance */\n      swap1\n      pop\n        /* \"TestStruct.sol\":2523:2524  0 */\n      0x00\n        /* \"TestStruct.sol\":2480:2495  balanceReceived */\n      dup1\n        /* \"TestStruct.sol\":2480:2507  balanceReceived[msg.sender] */\n      0x00\n        /* \"TestStruct.sol\":2496:2506  msg.sender */\n      caller\n        /* \"TestStruct.sol\":2480:2507  balanceReceived[msg.sender] */\n      0xffffffffffffffffffffffffffffffffffffffff\n      and\n      0xffffffffffffffffffffffffffffffffffffffff\n      and\n      dup2\n      mstore\n      0x20\n      add\n      swap1\n      dup2\n      mstore\n      0x20\n      add\n      0x00\n      keccak256\n        /* \"TestStruct.sol\":2480:2520  balanceReceived[msg.sender].totalBalance */\n      0x00\n      add\n        /* \"TestStruct.sol\":2480:2524  balanceReceived[msg.sender].totalBalance = 0 */\n      dup2\n      swap1\n      sstore\n      pop\n        /* \"TestStruct.sol\":2537:2540  _to */\n      dup2\n        /* \"TestStruct.sol\":2537:2549  _to.transfer */\n      0xffffffffffffffffffffffffffffffffffffffff\n      and\n        /* \"TestStruct.sol\":2537:2564  _to.transfer(balanceToSend) */\n      0x08fc\n        /* \"TestStruct.sol\":2550:2563  balanceToSend */\n      dup3\n        /* \"TestStruct.sol\":2537:2564  _to.transfer(balanceToSend) */\n      swap1\n      dup2\n      iszero\n      mul\n      swap1\n      mload(0x40)\n      0x00\n      mload(0x40)\n      dup1\n      dup4\n      sub\n      dup2\n      dup6\n      dup9\n      dup9\n      call\n      swap4\n      pop\n      pop\n      pop\n      pop\n      iszero\n      dup1\n      iszero\n      tag_38\n      jumpi\n      returndatasize\n      0x00\n      dup1\n      returndatacopy\n      revert(0x00, returndatasize)\n    tag_38:\n      pop\n        /* \"TestStruct.sol\":2290:2572  {\r... */\n      pop\n        /* \"TestStruct.sol\":2231:2572  function withdrawAllMoney(address payable _to) public\r... */\n      pop\n      jump\t// out\n        /* \"TestStruct.sol\":480:580  function getBalance() public view returns(uint)\r... */\n    tag_15:\n        /* \"TestStruct.sol\":522:526  uint */\n      0x00\n        /* \"TestStruct.sol\":551:572  address(this).balance */\n      selfbalance\n        /* \"TestStruct.sol\":544:572  return address(this).balance */\n      swap1\n      pop\n        /* \"TestStruct.sol\":480:580  function getBalance() public view returns(uint)\r... */\n      swap1\n      jump\t// out\n        /* \"TestStruct.sol\":1191:1543  function depsoitMoney() public payable {\r... */\n    tag_19:\n        /* \"TestStruct.sol\":1285:1294  msg.value */\n      callvalue\n        /* \"TestStruct.sol\":1241:1256  balanceReceived */\n      0x00\n        /* \"TestStruct.sol\":1241:1268  balanceReceived[msg.sender] */\n      dup1\n        /* \"TestStruct.sol\":1257:1267  msg.sender */\n      caller\n        /* \"TestStruct.sol\":1241:1268  balanceReceived[msg.sender] */\n      0xffffffffffffffffffffffffffffffffffffffff\n      and\n      0xffffffffffffffffffffffffffffffffffffffff\n      and\n      dup2\n      mstore\n      0x20\n      add\n      swap1\n      dup2\n      mstore\n      0x20\n      add\n      0x00\n      keccak256\n        /* \"TestStruct.sol\":1241:1281  balanceReceived[msg.sender].totalBalance */\n      0x00\n      add\n      0x00\n        /* \"TestStruct.sol\":1241:1294  balanceReceived[msg.sender].totalBalance += msg.value */\n      dup3\n      dup3\n      sload\n      tag_41\n      swap2\n      swap1\n      tag_42\n      jump\t// in\n    tag_41:\n      swap3\n      pop\n      pop\n      dup2\n      swap1\n      sstore\n      pop\n        /* \"TestStruct.sol\":1307:1333  Transaction memory deposit */\n      0x00\n        /* \"TestStruct.sol\":1336:1375  Transaction(msg.value, block.timestamp) */\n      mload(0x40)\n      dup1\n      0x40\n      add\n      0x40\n      mstore\n      dup1\n        /* \"TestStruct.sol\":1348:1357  msg.value */\n      callvalue\n        /* \"TestStruct.sol\":1336:1375  Transaction(msg.value, block.timestamp) */\n      dup2\n      mstore\n      0x20\n      add\n        /* \"TestStruct.sol\":1359:1374  block.timestamp */\n      timestamp\n        /* \"TestStruct.sol\":1336:1375  Transaction(msg.value, block.timestamp) */\n      dup2\n      mstore\n      pop\n        /* \"TestStruct.sol\":1307:1375  Transaction memory deposit = Transaction(msg.value, block.timestamp) */\n      swap1\n      pop\n        /* \"TestStruct.sol\":1476:1483  deposit */\n      dup1\n        /* \"TestStruct.sol\":1396:1411  balanceReceived */\n      0x00\n        /* \"TestStruct.sol\":1396:1423  balanceReceived[msg.sender] */\n      dup1\n        /* \"TestStruct.sol\":1412:1422  msg.sender */\n      caller\n        /* \"TestStruct.sol\":1396:1423  balanceReceived[msg.sender] */\n      0xffffffffffffffffffffffffffffffffffffffff\n      and\n      0xffffffffffffffffffffffffffffffffffffffff\n      and\n      dup2\n      mstore\n      0x20\n      add\n      swap1\n      dup2\n      mstore\n      0x20\n      add\n      0x00\n      keccak256\n        /* \"TestStruct.sol\":1396:1432  balanceReceived[msg.sender].deposits */\n      0x02\n      add\n        /* \"TestStruct.sol\":1396:1473  balanceReceived[msg.sender].deposits[balanceReceived[msg.sender].numDeposits] */\n      0x00\n        /* \"TestStruct.sol\":1433:1448  balanceReceived */\n      dup1\n        /* \"TestStruct.sol\":1433:1460  balanceReceived[msg.sender] */\n      0x00\n        /* \"TestStruct.sol\":1449:1459  msg.sender */\n      caller\n        /* \"TestStruct.sol\":1433:1460  balanceReceived[msg.sender] */\n      0xffffffffffffffffffffffffffffffffffffffff\n      and\n      0xffffffffffffffffffffffffffffffffffffffff\n      and\n      dup2\n      mstore\n      0x20\n      add\n      swap1\n      dup2\n      mstore\n      0x20\n      add\n      0x00\n      keccak256\n        /* \"TestStruct.sol\":1433:1472  balanceReceived[msg.sender].numDeposits */\n      0x01\n      add\n      sload\n        /* \"TestStruct.sol\":1396:1473  balanceReceived[msg.sender].deposits[balanceReceived[msg.sender].numDeposits] */\n      dup2\n      mstore\n      0x20\n      add\n      swap1\n      dup2\n      mstore\n      0x20\n      add\n      0x00\n      keccak256\n        /* \"TestStruct.sol\":1396:1483  balanceReceived[msg.sender].deposits[balanceReceived[msg.sender].numDeposits] = deposit */\n      0x00\n      dup3\n      add\n      mload\n      dup2\n      0x00\n      add\n      sstore\n      0x20\n      dup3\n      add\n      mload\n      dup2\n      0x01\n      add\n      sstore\n      swap1\n      pop\n      pop\n        /* \"TestStruct.sol\":1494:1509  balanceReceived */\n      0x00\n        /* \"TestStruct.sol\":1494:1521  balanceReceived[msg.sender] */\n      dup1\n        /* \"TestStruct.sol\":1510:1520  msg.sender */\n      caller\n        /* \"TestStruct.sol\":1494:1521  balanceReceived[msg.sender] */\n      0xffffffffffffffffffffffffffffffffffffffff\n      and\n      0xffffffffffffffffffffffffffffffffffffffff\n      and\n      dup2\n      mstore\n      0x20\n      add\n      swap1\n      dup2\n      mstore\n      0x20\n      add\n      0x00\n      keccak256\n        /* \"TestStruct.sol\":1494:1533  balanceReceived[msg.sender].numDeposits */\n      0x01\n      add\n      0x00\n        /* \"TestStruct.sol\":1494:1535  balanceReceived[msg.sender].numDeposits++ */\n      dup2\n      sload\n      dup1\n      swap3\n      swap2\n      swap1\n      tag_43\n      swap1\n      tag_44\n      jump\t// in\n    tag_43:\n      swap2\n      swap1\n      pop\n      sstore\n      pop\n        /* \"TestStruct.sol\":1230:1543  {\r... */\n      pop\n        /* \"TestStruct.sol\":1191:1543  function depsoitMoney() public payable {\r... */\n      jump\t// out\n        /* \"TestStruct.sol\":588:719  function getBalanceAtAddress(address _addr) public view returns(uint) {\r... */\n    tag_24:\n        /* \"TestStruct.sol\":652:656  uint */\n      0x00\n        /* \"TestStruct.sol\":676:691  balanceReceived */\n      dup1\n        /* \"TestStruct.sol\":676:698  balanceReceived[_addr] */\n      0x00\n        /* \"TestStruct.sol\":692:697  _addr */\n      dup4\n        /* \"TestStruct.sol\":676:698  balanceReceived[_addr] */\n      0xffffffffffffffffffffffffffffffffffffffff\n      and\n      0xffffffffffffffffffffffffffffffffffffffff\n      and\n      dup2\n      mstore\n      0x20\n      add\n      swap1\n      dup2\n      mstore\n      0x20\n      add\n      0x00\n      keccak256\n        /* \"TestStruct.sol\":676:711  balanceReceived[_addr].totalBalance */\n      0x00\n      add\n      sload\n        /* \"TestStruct.sol\":669:711  return balanceReceived[_addr].totalBalance */\n      swap1\n      pop\n        /* \"TestStruct.sol\":588:719  function getBalanceAtAddress(address _addr) public view returns(uint) {\r... */\n      swap2\n      swap1\n      pop\n      jump\t// out\n        /* \"TestStruct.sol\":420:471  mapping (address => Balance) public balanceReceived */\n    tag_29:\n      mstore(0x20, 0x00)\n      dup1\n      0x00\n      mstore\n      keccak256(0x00, 0x40)\n      0x00\n      swap2\n      pop\n      swap1\n      pop\n      dup1\n      0x00\n      add\n      sload\n      swap1\n      dup1\n      0x01\n      add\n      sload\n      swap1\n      dup1\n      0x03\n      add\n      sload\n      swap1\n      pop\n      dup4\n      jump\t// out\n        /* \"TestStruct.sol\":1555:2223  function withdrawMoney(address payable _to, uint _amount) public payable\r... */\n    tag_35:\n        /* \"TestStruct.sol\":1776:1783  _amount */\n      dup1\n        /* \"TestStruct.sol\":1732:1747  balanceReceived */\n      0x00\n        /* \"TestStruct.sol\":1732:1759  balanceReceived[msg.sender] */\n      dup1\n        /* \"TestStruct.sol\":1748:1758  msg.sender */\n      caller\n        /* \"TestStruct.sol\":1732:1759  balanceReceived[msg.sender] */\n      0xffffffffffffffffffffffffffffffffffffffff\n      and\n      0xffffffffffffffffffffffffffffffffffffffff\n      and\n      dup2\n      mstore\n      0x20\n      add\n      swap1\n      dup2\n      mstore\n      0x20\n      add\n      0x00\n      keccak256\n        /* \"TestStruct.sol\":1732:1772  balanceReceived[msg.sender].totalBalance */\n      0x00\n      add\n      sload\n        /* \"TestStruct.sol\":1732:1783  balanceReceived[msg.sender].totalBalance >= _amount */\n      lt\n      iszero\n        /* \"TestStruct.sol\":1724:1804  require(balanceReceived[msg.sender].totalBalance >= _amount, \"not enough money\") */\n      tag_47\n      jumpi\n      mload(0x40)\n      0x08c379a000000000000000000000000000000000000000000000000000000000\n      dup2\n      mstore\n      0x04\n      add\n      tag_48\n      swap1\n      tag_49\n      jump\t// in\n    tag_48:\n      mload(0x40)\n      dup1\n      swap2\n      sub\n      swap1\n      revert\n    tag_47:\n        /* \"TestStruct.sol\":1920:1927  _amount */\n      dup1\n        /* \"TestStruct.sol\":1876:1891  balanceReceived */\n      0x00\n        /* \"TestStruct.sol\":1876:1903  balanceReceived[msg.sender] */\n      dup1\n        /* \"TestStruct.sol\":1892:1902  msg.sender */\n      caller\n        /* \"TestStruct.sol\":1876:1903  balanceReceived[msg.sender] */\n      0xffffffffffffffffffffffffffffffffffffffff\n      and\n      0xffffffffffffffffffffffffffffffffffffffff\n      and\n      dup2\n      mstore\n      0x20\n      add\n      swap1\n      dup2\n      mstore\n      0x20\n      add\n      0x00\n      keccak256\n        /* \"TestStruct.sol\":1876:1916  balanceReceived[msg.sender].totalBalance */\n      0x00\n      add\n      0x00\n        /* \"TestStruct.sol\":1876:1927  balanceReceived[msg.sender].totalBalance -= _amount */\n      dup3\n      dup3\n      sload\n      tag_50\n      swap2\n      swap1\n      tag_51\n      jump\t// in\n    tag_50:\n      swap3\n      pop\n      pop\n      dup2\n      swap1\n      sstore\n      pop\n        /* \"TestStruct.sol\":1940:1969  Transaction memory withdrawal */\n      0x00\n        /* \"TestStruct.sol\":1972:2011  Transaction(msg.value, block.timestamp) */\n      mload(0x40)\n      dup1\n      0x40\n      add\n      0x40\n      mstore\n      dup1\n        /* \"TestStruct.sol\":1984:1993  msg.value */\n      callvalue\n        /* \"TestStruct.sol\":1972:2011  Transaction(msg.value, block.timestamp) */\n      dup2\n      mstore\n      0x20\n      add\n        /* \"TestStruct.sol\":1995:2010  block.timestamp */\n      timestamp\n        /* \"TestStruct.sol\":1972:2011  Transaction(msg.value, block.timestamp) */\n      dup2\n      mstore\n      pop\n        /* \"TestStruct.sol\":1940:2011  Transaction memory withdrawal = Transaction(msg.value, block.timestamp) */\n      swap1\n      pop\n        /* \"TestStruct.sol\":2108:2118  withdrawal */\n      dup1\n        /* \"TestStruct.sol\":2022:2037  balanceReceived */\n      0x00\n        /* \"TestStruct.sol\":2022:2049  balanceReceived[msg.sender] */\n      dup1\n        /* \"TestStruct.sol\":2038:2048  msg.sender */\n      caller\n        /* \"TestStruct.sol\":2022:2049  balanceReceived[msg.sender] */\n      0xffffffffffffffffffffffffffffffffffffffff\n      and\n      0xffffffffffffffffffffffffffffffffffffffff\n      and\n      dup2\n      mstore\n      0x20\n      add\n      swap1\n      dup2\n      mstore\n      0x20\n      add\n      0x00\n      keccak256\n        /* \"TestStruct.sol\":2022:2061  balanceReceived[msg.sender].withdrawals */\n      0x04\n      add\n        /* \"TestStruct.sol\":2022:2105  balanceReceived[msg.sender].withdrawals[balanceReceived[msg.sender].numWithdrawals] */\n      0x00\n        /* \"TestStruct.sol\":2062:2077  balanceReceived */\n      dup1\n        /* \"TestStruct.sol\":2062:2089  balanceReceived[msg.sender] */\n      0x00\n        /* \"TestStruct.sol\":2078:2088  msg.sender */\n      caller\n        /* \"TestStruct.sol\":2062:2089  balanceReceived[msg.sender] */\n      0xffffffffffffffffffffffffffffffffffffffff\n      and\n      0xffffffffffffffffffffffffffffffffffffffff\n      and\n      dup2\n      mstore\n      0x20\n      add\n      swap1\n      dup2\n      mstore\n      0x20\n      add\n      0x00\n      keccak256\n        /* \"TestStruct.sol\":2062:2104  balanceReceived[msg.sender].numWithdrawals */\n      0x03\n      add\n      sload\n        /* \"TestStruct.sol\":2022:2105  balanceReceived[msg.sender].withdrawals[balanceReceived[msg.sender].numWithdrawals] */\n      dup2\n      mstore\n      0x20\n      add\n      swap1\n      dup2\n      mstore\n      0x20\n      add\n      0x00\n      keccak256\n        /* \"TestStruct.sol\":2022:2118  balanceReceived[msg.sender].withdrawals[balanceReceived[msg.sender].numWithdrawals] = withdrawal */\n      0x00\n      dup3\n      add\n      mload\n      dup2\n      0x00\n      add\n      sstore\n      0x20\n      dup3\n      add\n      mload\n      dup2\n      0x01\n      add\n      sstore\n      swap1\n      pop\n      pop\n        /* \"TestStruct.sol\":2129:2144  balanceReceived */\n      0x00\n        /* \"TestStruct.sol\":2129:2156  balanceReceived[msg.sender] */\n      dup1\n        /* \"TestStruct.sol\":2145:2155  msg.sender */\n      caller\n        /* \"TestStruct.sol\":2129:2156  balanceReceived[msg.sender] */\n      0xffffffffffffffffffffffffffffffffffffffff\n      and\n      0xffffffffffffffffffffffffffffffffffffffff\n      and\n      dup2\n      mstore\n      0x20\n      add\n      swap1\n      dup2\n      mstore\n      0x20\n      add\n      0x00\n      keccak256\n        /* \"TestStruct.sol\":2129:2171  balanceReceived[msg.sender].numWithdrawals */\n      0x03\n      add\n      0x00\n        /* \"TestStruct.sol\":2129:2173  balanceReceived[msg.sender].numWithdrawals++ */\n      dup2\n      sload\n      dup1\n      swap3\n      swap2\n      swap1\n      tag_52\n      swap1\n      tag_44\n      jump\t// in\n    tag_52:\n      swap2\n      swap1\n      pop\n      sstore\n      pop\n        /* \"TestStruct.sol\":2194:2197  _to */\n      dup3\n        /* \"TestStruct.sol\":2194:2206  _to.transfer */\n      0xffffffffffffffffffffffffffffffffffffffff\n      and\n        /* \"TestStruct.sol\":2194:2215  _to.transfer(_amount) */\n      0x08fc\n        /* \"TestStruct.sol\":2207:2214  _amount */\n      dup4\n        /* \"TestStruct.sol\":2194:2215  _to.transfer(_amount) */\n      swap1\n      dup2\n      iszero\n      mul\n      swap1\n      mload(0x40)\n      0x00\n      mload(0x40)\n      dup1\n      dup4\n      sub\n      dup2\n      dup6\n      dup9\n      dup9\n      call\n      swap4\n      pop\n      pop\n      pop\n      pop\n      iszero\n      dup1\n      iszero\n      tag_54\n      jumpi\n      returndatasize\n      0x00\n      dup1\n      returndatacopy\n      revert(0x00, returndatasize)\n    tag_54:\n      pop\n        /* \"TestStruct.sol\":1633:2223  {\r... */\n      pop\n        /* \"TestStruct.sol\":1555:2223  function withdrawMoney(address payable _to, uint _amount) public payable\r... */\n      pop\n      pop\n      jump\t// out\n        /* \"#utility.yul\":7:146   */\n    tag_56:\n        /* \"#utility.yul\":53:58   */\n      0x00\n        /* \"#utility.yul\":91:97   */\n      dup2\n        /* \"#utility.yul\":78:98   */\n      calldataload\n        /* \"#utility.yul\":69:98   */\n      swap1\n      pop\n        /* \"#utility.yul\":107:140   */\n      tag_58\n        /* \"#utility.yul\":134:139   */\n      dup2\n        /* \"#utility.yul\":107:140   */\n      tag_59\n      jump\t// in\n    tag_58:\n        /* \"#utility.yul\":7:146   */\n      swap3\n      swap2\n      pop\n      pop\n      jump\t// out\n        /* \"#utility.yul\":152:307   */\n    tag_60:\n        /* \"#utility.yul\":206:211   */\n      0x00\n        /* \"#utility.yul\":244:250   */\n      dup2\n        /* \"#utility.yul\":231:251   */\n      calldataload\n        /* \"#utility.yul\":222:251   */\n      swap1\n      pop\n        /* \"#utility.yul\":260:301   */\n      tag_62\n        /* \"#utility.yul\":295:300   */\n      dup2\n        /* \"#utility.yul\":260:301   */\n      tag_63\n      jump\t// in\n    tag_62:\n        /* \"#utility.yul\":152:307   */\n      swap3\n      swap2\n      pop\n      pop\n      jump\t// out\n        /* \"#utility.yul\":313:452   */\n    tag_64:\n        /* \"#utility.yul\":359:364   */\n      0x00\n        /* \"#utility.yul\":397:403   */\n      dup2\n        /* \"#utility.yul\":384:404   */\n      calldataload\n        /* \"#utility.yul\":375:404   */\n      swap1\n      pop\n        /* \"#utility.yul\":413:446   */\n      tag_66\n        /* \"#utility.yul\":440:445   */\n      dup2\n        /* \"#utility.yul\":413:446   */\n      tag_67\n      jump\t// in\n    tag_66:\n        /* \"#utility.yul\":313:452   */\n      swap3\n      swap2\n      pop\n      pop\n      jump\t// out\n        /* \"#utility.yul\":458:787   */\n    tag_23:\n        /* \"#utility.yul\":517:523   */\n      0x00\n        /* \"#utility.yul\":566:568   */\n      0x20\n        /* \"#utility.yul\":554:563   */\n      dup3\n        /* \"#utility.yul\":545:552   */\n      dup5\n        /* \"#utility.yul\":541:564   */\n      sub\n        /* \"#utility.yul\":537:569   */\n      slt\n        /* \"#utility.yul\":534:653   */\n      iszero\n      tag_69\n      jumpi\n        /* \"#utility.yul\":572:651   */\n      tag_70\n      tag_71\n      jump\t// in\n    tag_70:\n        /* \"#utility.yul\":534:653   */\n    tag_69:\n        /* \"#utility.yul\":692:693   */\n      0x00\n        /* \"#utility.yul\":717:770   */\n      tag_72\n        /* \"#utility.yul\":762:769   */\n      dup5\n        /* \"#utility.yul\":753:759   */\n      dup3\n        /* \"#utility.yul\":742:751   */\n      dup6\n        /* \"#utility.yul\":738:760   */\n      add\n        /* \"#utility.yul\":717:770   */\n      tag_56\n      jump\t// in\n    tag_72:\n        /* \"#utility.yul\":707:770   */\n      swap2\n      pop\n        /* \"#utility.yul\":663:780   */\n      pop\n        /* \"#utility.yul\":458:787   */\n      swap3\n      swap2\n      pop\n      pop\n      jump\t// out\n        /* \"#utility.yul\":793:1138   */\n    tag_11:\n        /* \"#utility.yul\":860:866   */\n      0x00\n        /* \"#utility.yul\":909:911   */\n      0x20\n        /* \"#utility.yul\":897:906   */\n      dup3\n        /* \"#utility.yul\":888:895   */\n      dup5\n        /* \"#utility.yul\":884:907   */\n      sub\n        /* \"#utility.yul\":880:912   */\n      slt\n        /* \"#utility.yul\":877:996   */\n      iszero\n      tag_74\n      jumpi\n        /* \"#utility.yul\":915:994   */\n      tag_75\n      tag_71\n      jump\t// in\n    tag_75:\n        /* \"#utility.yul\":877:996   */\n    tag_74:\n        /* \"#utility.yul\":1035:1036   */\n      0x00\n        /* \"#utility.yul\":1060:1121   */\n      tag_76\n        /* \"#utility.yul\":1113:1120   */\n      dup5\n        /* \"#utility.yul\":1104:1110   */\n      dup3\n        /* \"#utility.yul\":1093:1102   */\n      dup6\n        /* \"#utility.yul\":1089:1111   */\n      add\n        /* \"#utility.yul\":1060:1121   */\n      tag_60\n      jump\t// in\n    tag_76:\n        /* \"#utility.yul\":1050:1121   */\n      swap2\n      pop\n        /* \"#utility.yul\":1006:1131   */\n      pop\n        /* \"#utility.yul\":793:1138   */\n      swap3\n      swap2\n      pop\n      pop\n      jump\t// out\n        /* \"#utility.yul\":1144:1634   */\n    tag_34:\n        /* \"#utility.yul\":1220:1226   */\n      0x00\n        /* \"#utility.yul\":1228:1234   */\n      dup1\n        /* \"#utility.yul\":1277:1279   */\n      0x40\n        /* \"#utility.yul\":1265:1274   */\n      dup4\n        /* \"#utility.yul\":1256:1263   */\n      dup6\n        /* \"#utility.yul\":1252:1275   */\n      sub\n        /* \"#utility.yul\":1248:1280   */\n      slt\n        /* \"#utility.yul\":1245:1364   */\n      iszero\n      tag_78\n      jumpi\n        /* \"#utility.yul\":1283:1362   */\n      tag_79\n      tag_71\n      jump\t// in\n    tag_79:\n        /* \"#utility.yul\":1245:1364   */\n    tag_78:\n        /* \"#utility.yul\":1403:1404   */\n      0x00\n        /* \"#utility.yul\":1428:1489   */\n      tag_80\n        /* \"#utility.yul\":1481:1488   */\n      dup6\n        /* \"#utility.yul\":1472:1478   */\n      dup3\n        /* \"#utility.yul\":1461:1470   */\n      dup7\n        /* \"#utility.yul\":1457:1479   */\n      add\n        /* \"#utility.yul\":1428:1489   */\n      tag_60\n      jump\t// in\n    tag_80:\n        /* \"#utility.yul\":1418:1489   */\n      swap3\n      pop\n        /* \"#utility.yul\":1374:1499   */\n      pop\n        /* \"#utility.yul\":1538:1540   */\n      0x20\n        /* \"#utility.yul\":1564:1617   */\n      tag_81\n        /* \"#utility.yul\":1609:1616   */\n      dup6\n        /* \"#utility.yul\":1600:1606   */\n      dup3\n        /* \"#utility.yul\":1589:1598   */\n      dup7\n        /* \"#utility.yul\":1585:1607   */\n      add\n        /* \"#utility.yul\":1564:1617   */\n      tag_64\n      jump\t// in\n    tag_81:\n        /* \"#utility.yul\":1554:1617   */\n      swap2\n      pop\n        /* \"#utility.yul\":1509:1627   */\n      pop\n        /* \"#utility.yul\":1144:1634   */\n      swap3\n      pop\n      swap3\n      swap1\n      pop\n      jump\t// out\n        /* \"#utility.yul\":1640:2006   */\n    tag_82:\n        /* \"#utility.yul\":1782:1785   */\n      0x00\n        /* \"#utility.yul\":1803:1870   */\n      tag_84\n        /* \"#utility.yul\":1867:1869   */\n      0x10\n        /* \"#utility.yul\":1862:1865   */\n      dup4\n        /* \"#utility.yul\":1803:1870   */\n      tag_85\n      jump\t// in\n    tag_84:\n        /* \"#utility.yul\":1796:1870   */\n      swap2\n      pop\n        /* \"#utility.yul\":1879:1972   */\n      tag_86\n        /* \"#utility.yul\":1968:1971   */\n      dup3\n        /* \"#utility.yul\":1879:1972   */\n      tag_87\n      jump\t// in\n    tag_86:\n        /* \"#utility.yul\":1997:1999   */\n      0x20\n        /* \"#utility.yul\":1992:1995   */\n      dup3\n        /* \"#utility.yul\":1988:2000   */\n      add\n        /* \"#utility.yul\":1981:2000   */\n      swap1\n      pop\n        /* \"#utility.yul\":1640:2006   */\n      swap2\n      swap1\n      pop\n      jump\t// out\n        /* \"#utility.yul\":2012:2130   */\n    tag_88:\n        /* \"#utility.yul\":2099:2123   */\n      tag_90\n        /* \"#utility.yul\":2117:2122   */\n      dup2\n        /* \"#utility.yul\":2099:2123   */\n      tag_91\n      jump\t// in\n    tag_90:\n        /* \"#utility.yul\":2094:2097   */\n      dup3\n        /* \"#utility.yul\":2087:2124   */\n      mstore\n        /* \"#utility.yul\":2012:2130   */\n      pop\n      pop\n      jump\t// out\n        /* \"#utility.yul\":2136:2555   */\n    tag_49:\n        /* \"#utility.yul\":2302:2306   */\n      0x00\n        /* \"#utility.yul\":2340:2342   */\n      0x20\n        /* \"#utility.yul\":2329:2338   */\n      dup3\n        /* \"#utility.yul\":2325:2343   */\n      add\n        /* \"#utility.yul\":2317:2343   */\n      swap1\n      pop\n        /* \"#utility.yul\":2389:2398   */\n      dup2\n        /* \"#utility.yul\":2383:2387   */\n      dup2\n        /* \"#utility.yul\":2379:2399   */\n      sub\n        /* \"#utility.yul\":2375:2376   */\n      0x00\n        /* \"#utility.yul\":2364:2373   */\n      dup4\n        /* \"#utility.yul\":2360:2377   */\n      add\n        /* \"#utility.yul\":2353:2400   */\n      mstore\n        /* \"#utility.yul\":2417:2548   */\n      tag_93\n        /* \"#utility.yul\":2543:2547   */\n      dup2\n        /* \"#utility.yul\":2417:2548   */\n      tag_82\n      jump\t// in\n    tag_93:\n        /* \"#utility.yul\":2409:2548   */\n      swap1\n      pop\n        /* \"#utility.yul\":2136:2555   */\n      swap2\n      swap1\n      pop\n      jump\t// out\n        /* \"#utility.yul\":2561:2783   */\n    tag_17:\n        /* \"#utility.yul\":2654:2658   */\n      0x00\n        /* \"#utility.yul\":2692:2694   */\n      0x20\n        /* \"#utility.yul\":2681:2690   */\n      dup3\n        /* \"#utility.yul\":2677:2695   */\n      add\n        /* \"#utility.yul\":2669:2695   */\n      swap1\n      pop\n        /* \"#utility.yul\":2705:2776   */\n      tag_95\n        /* \"#utility.yul\":2773:2774   */\n      0x00\n        /* \"#utility.yul\":2762:2771   */\n      dup4\n        /* \"#utility.yul\":2758:2775   */\n      add\n        /* \"#utility.yul\":2749:2755   */\n      dup5\n        /* \"#utility.yul\":2705:2776   */\n      tag_88\n      jump\t// in\n    tag_95:\n        /* \"#utility.yul\":2561:2783   */\n      swap3\n      swap2\n      pop\n      pop\n      jump\t// out\n        /* \"#utility.yul\":2789:3231   */\n    tag_31:\n        /* \"#utility.yul\":2938:2942   */\n      0x00\n        /* \"#utility.yul\":2976:2978   */\n      0x60\n        /* \"#utility.yul\":2965:2974   */\n      dup3\n        /* \"#utility.yul\":2961:2979   */\n      add\n        /* \"#utility.yul\":2953:2979   */\n      swap1\n      pop\n        /* \"#utility.yul\":2989:3060   */\n      tag_97\n        /* \"#utility.yul\":3057:3058   */\n      0x00\n        /* \"#utility.yul\":3046:3055   */\n      dup4\n        /* \"#utility.yul\":3042:3059   */\n      add\n        /* \"#utility.yul\":3033:3039   */\n      dup7\n        /* \"#utility.yul\":2989:3060   */\n      tag_88\n      jump\t// in\n    tag_97:\n        /* \"#utility.yul\":3070:3142   */\n      tag_98\n        /* \"#utility.yul\":3138:3140   */\n      0x20\n        /* \"#utility.yul\":3127:3136   */\n      dup4\n        /* \"#utility.yul\":3123:3141   */\n      add\n        /* \"#utility.yul\":3114:3120   */\n      dup6\n        /* \"#utility.yul\":3070:3142   */\n      tag_88\n      jump\t// in\n    tag_98:\n        /* \"#utility.yul\":3152:3224   */\n      tag_99\n        /* \"#utility.yul\":3220:3222   */\n      0x40\n        /* \"#utility.yul\":3209:3218   */\n      dup4\n        /* \"#utility.yul\":3205:3223   */\n      add\n        /* \"#utility.yul\":3196:3202   */\n      dup5\n        /* \"#utility.yul\":3152:3224   */\n      tag_88\n      jump\t// in\n    tag_99:\n        /* \"#utility.yul\":2789:3231   */\n      swap5\n      swap4\n      pop\n      pop\n      pop\n      pop\n      jump\t// out\n        /* \"#utility.yul\":3318:3487   */\n    tag_85:\n        /* \"#utility.yul\":3402:3413   */\n      0x00\n        /* \"#utility.yul\":3436:3442   */\n      dup3\n        /* \"#utility.yul\":3431:3434   */\n      dup3\n        /* \"#utility.yul\":3424:3443   */\n      mstore\n        /* \"#utility.yul\":3476:3480   */\n      0x20\n        /* \"#utility.yul\":3471:3474   */\n      dup3\n        /* \"#utility.yul\":3467:3481   */\n      add\n        /* \"#utility.yul\":3452:3481   */\n      swap1\n      pop\n        /* \"#utility.yul\":3318:3487   */\n      swap3\n      swap2\n      pop\n      pop\n      jump\t// out\n        /* \"#utility.yul\":3493:3798   */\n    tag_42:\n        /* \"#utility.yul\":3533:3536   */\n      0x00\n        /* \"#utility.yul\":3552:3572   */\n      tag_104\n        /* \"#utility.yul\":3570:3571   */\n      dup3\n        /* \"#utility.yul\":3552:3572   */\n      tag_91\n      jump\t// in\n    tag_104:\n        /* \"#utility.yul\":3547:3572   */\n      swap2\n      pop\n        /* \"#utility.yul\":3586:3606   */\n      tag_105\n        /* \"#utility.yul\":3604:3605   */\n      dup4\n        /* \"#utility.yul\":3586:3606   */\n      tag_91\n      jump\t// in\n    tag_105:\n        /* \"#utility.yul\":3581:3606   */\n      swap3\n      pop\n        /* \"#utility.yul\":3740:3741   */\n      dup3\n        /* \"#utility.yul\":3672:3738   */\n      0xffffffffffffffffffffffffffffffffffffffffffffffffffffffffffffffff\n        /* \"#utility.yul\":3668:3742   */\n      sub\n        /* \"#utility.yul\":3665:3666   */\n      dup3\n        /* \"#utility.yul\":3662:3743   */\n      gt\n        /* \"#utility.yul\":3659:3766   */\n      iszero\n      tag_106\n      jumpi\n        /* \"#utility.yul\":3746:3764   */\n      tag_107\n      tag_108\n      jump\t// in\n    tag_107:\n        /* \"#utility.yul\":3659:3766   */\n    tag_106:\n        /* \"#utility.yul\":3790:3791   */\n      dup3\n        /* \"#utility.yul\":3787:3788   */\n      dup3\n        /* \"#utility.yul\":3783:3792   */\n      add\n        /* \"#utility.yul\":3776:3792   */\n      swap1\n      pop\n        /* \"#utility.yul\":3493:3798   */\n      swap3\n      swap2\n      pop\n      pop\n      jump\t// out\n        /* \"#utility.yul\":3804:3995   */\n    tag_51:\n        /* \"#utility.yul\":3844:3848   */\n      0x00\n        /* \"#utility.yul\":3864:3884   */\n      tag_110\n        /* \"#utility.yul\":3882:3883   */\n      dup3\n        /* \"#utility.yul\":3864:3884   */\n      tag_91\n      jump\t// in\n    tag_110:\n        /* \"#utility.yul\":3859:3884   */\n      swap2\n      pop\n        /* \"#utility.yul\":3898:3918   */\n      tag_111\n        /* \"#utility.yul\":3916:3917   */\n      dup4\n        /* \"#utility.yul\":3898:3918   */\n      tag_91\n      jump\t// in\n    tag_111:\n        /* \"#utility.yul\":3893:3918   */\n      swap3\n      pop\n        /* \"#utility.yul\":3937:3938   */\n      dup3\n        /* \"#utility.yul\":3934:3935   */\n      dup3\n        /* \"#utility.yul\":3931:3939   */\n      lt\n        /* \"#utility.yul\":3928:3962   */\n      iszero\n      tag_112\n      jumpi\n        /* \"#utility.yul\":3942:3960   */\n      tag_113\n      tag_108\n      jump\t// in\n    tag_113:\n        /* \"#utility.yul\":3928:3962   */\n    tag_112:\n        /* \"#utility.yul\":3987:3988   */\n      dup3\n        /* \"#utility.yul\":3984:3985   */\n      dup3\n        /* \"#utility.yul\":3980:3989   */\n      sub\n        /* \"#utility.yul\":3972:3989   */\n      swap1\n      pop\n        /* \"#utility.yul\":3804:3995   */\n      swap3\n      swap2\n      pop\n      pop\n      jump\t// out\n        /* \"#utility.yul\":4001:4097   */\n    tag_114:\n        /* \"#utility.yul\":4038:4045   */\n      0x00\n        /* \"#utility.yul\":4067:4091   */\n      tag_116\n        /* \"#utility.yul\":4085:4090   */\n      dup3\n        /* \"#utility.yul\":4067:4091   */\n      tag_117\n      jump\t// in\n    tag_116:\n        /* \"#utility.yul\":4056:4091   */\n      swap1\n      pop\n        /* \"#utility.yul\":4001:4097   */\n      swap2\n      swap1\n      pop\n      jump\t// out\n        /* \"#utility.yul\":4103:4207   */\n    tag_118:\n        /* \"#utility.yul\":4148:4155   */\n      0x00\n        /* \"#utility.yul\":4177:4201   */\n      tag_120\n        /* \"#utility.yul\":4195:4200   */\n      dup3\n        /* \"#utility.yul\":4177:4201   */\n      tag_117\n      jump\t// in\n    tag_120:\n        /* \"#utility.yul\":4166:4201   */\n      swap1\n      pop\n        /* \"#utility.yul\":4103:4207   */\n      swap2\n      swap1\n      pop\n      jump\t// out\n        /* \"#utility.yul\":4213:4339   */\n    tag_117:\n        /* \"#utility.yul\":4250:4257   */\n      0x00\n        /* \"#utility.yul\":4290:4332   */\n      0xffffffffffffffffffffffffffffffffffffffff\n        /* \"#utility.yul\":4283:4288   */\n      dup3\n        /* \"#utility.yul\":4279:4333   */\n      and\n        /* \"#utility.yul\":4268:4333   */\n      swap1\n      pop\n        /* \"#utility.yul\":4213:4339   */\n      swap2\n      swap1\n      pop\n      jump\t// out\n        /* \"#utility.yul\":4345:4422   */\n    tag_91:\n        /* \"#utility.yul\":4382:4389   */\n      0x00\n        /* \"#utility.yul\":4411:4416   */\n      dup2\n        /* \"#utility.yul\":4400:4416   */\n      swap1\n      pop\n        /* \"#utility.yul\":4345:4422   */\n      swap2\n      swap1\n      pop\n      jump\t// out\n        /* \"#utility.yul\":4428:4661   */\n    tag_44:\n        /* \"#utility.yul\":4467:4470   */\n      0x00\n        /* \"#utility.yul\":4490:4514   */\n      tag_124\n        /* \"#utility.yul\":4508:4513   */\n      dup3\n        /* \"#utility.yul\":4490:4514   */\n      tag_91\n      jump\t// in\n    tag_124:\n        /* \"#utility.yul\":4481:4514   */\n      swap2\n      pop\n        /* \"#utility.yul\":4536:4602   */\n      0xffffffffffffffffffffffffffffffffffffffffffffffffffffffffffffffff\n        /* \"#utility.yul\":4529:4534   */\n      dup3\n        /* \"#utility.yul\":4526:4603   */\n      eq\n        /* \"#utility.yul\":4523:4626   */\n      iszero\n      tag_125\n      jumpi\n        /* \"#utility.yul\":4606:4624   */\n      tag_126\n      tag_108\n      jump\t// in\n    tag_126:\n        /* \"#utility.yul\":4523:4626   */\n    tag_125:\n        /* \"#utility.yul\":4653:4654   */\n      0x01\n        /* \"#utility.yul\":4646:4651   */\n      dup3\n        /* \"#utility.yul\":4642:4655   */\n      add\n        /* \"#utility.yul\":4635:4655   */\n      swap1\n      pop\n        /* \"#utility.yul\":4428:4661   */\n      swap2\n      swap1\n      pop\n      jump\t// out\n        /* \"#utility.yul\":4667:4847   */\n    tag_108:\n        /* \"#utility.yul\":4715:4792   */\n      0x4e487b7100000000000000000000000000000000000000000000000000000000\n        /* \"#utility.yul\":4712:4713   */\n      0x00\n        /* \"#utility.yul\":4705:4793   */\n      mstore\n        /* \"#utility.yul\":4812:4816   */\n      0x11\n        /* \"#utility.yul\":4809:4810   */\n      0x04\n        /* \"#utility.yul\":4802:4817   */\n      mstore\n        /* \"#utility.yul\":4836:4840   */\n      0x24\n        /* \"#utility.yul\":4833:4834   */\n      0x00\n        /* \"#utility.yul\":4826:4841   */\n      revert\n        /* \"#utility.yul\":4976:5093   */\n    tag_71:\n        /* \"#utility.yul\":5085:5086   */\n      0x00\n        /* \"#utility.yul\":5082:5083   */\n      dup1\n        /* \"#utility.yul\":5075:5087   */\n      revert\n        /* \"#utility.yul\":5099:5265   */\n    tag_87:\n        /* \"#utility.yul\":5239:5257   */\n      0x6e6f7420656e6f756768206d6f6e657900000000000000000000000000000000\n        /* \"#utility.yul\":5235:5236   */\n      0x00\n        /* \"#utility.yul\":5227:5233   */\n      dup3\n        /* \"#utility.yul\":5223:5237   */\n      add\n        /* \"#utility.yul\":5216:5258   */\n      mstore\n        /* \"#utility.yul\":5099:5265   */\n      pop\n      jump\t// out\n        /* \"#utility.yul\":5271:5393   */\n    tag_59:\n        /* \"#utility.yul\":5344:5368   */\n      tag_133\n        /* \"#utility.yul\":5362:5367   */\n      dup2\n        /* \"#utility.yul\":5344:5368   */\n      tag_114\n      jump\t// in\n    tag_133:\n        /* \"#utility.yul\":5337:5342   */\n      dup2\n        /* \"#utility.yul\":5334:5369   */\n      eq\n        /* \"#utility.yul\":5324:5387   */\n      tag_134\n      jumpi\n        /* \"#utility.yul\":5383:5384   */\n      0x00\n        /* \"#utility.yul\":5380:5381   */\n      dup1\n        /* \"#utility.yul\":5373:5385   */\n      revert\n        /* \"#utility.yul\":5324:5387   */\n    tag_134:\n        /* \"#utility.yul\":5271:5393   */\n      pop\n      jump\t// out\n        /* \"#utility.yul\":5399:5537   */\n    tag_63:\n        /* \"#utility.yul\":5480:5512   */\n      tag_136\n        /* \"#utility.yul\":5506:5511   */\n      dup2\n        /* \"#utility.yul\":5480:5512   */\n      tag_118\n      jump\t// in\n    tag_136:\n        /* \"#utility.yul\":5473:5478   */\n      dup2\n        /* \"#utility.yul\":5470:5513   */\n      eq\n        /* \"#utility.yul\":5460:5531   */\n      tag_137\n      jumpi\n        /* \"#utility.yul\":5527:5528   */\n      0x00\n        /* \"#utility.yul\":5524:5525   */\n      dup1\n        /* \"#utility.yul\":5517:5529   */\n      revert\n        /* \"#utility.yul\":5460:5531   */\n    tag_137:\n        /* \"#utility.yul\":5399:5537   */\n      pop\n      jump\t// out\n        /* \"#utility.yul\":5543:5665   */\n    tag_67:\n        /* \"#utility.yul\":5616:5640   */\n      tag_139\n        /* \"#utility.yul\":5634:5639   */\n      dup2\n        /* \"#utility.yul\":5616:5640   */\n      tag_91\n      jump\t// in\n    tag_139:\n        /* \"#utility.yul\":5609:5614   */\n      dup2\n        /* \"#utility.yul\":5606:5641   */\n      eq\n        /* \"#utility.yul\":5596:5659   */\n      tag_140\n      jumpi\n        /* \"#utility.yul\":5655:5656   */\n      0x00\n        /* \"#utility.yul\":5652:5653   */\n      dup1\n        /* \"#utility.yul\":5645:5657   */\n      revert\n        /* \"#utility.yul\":5596:5659   */\n    tag_140:\n        /* \"#utility.yul\":5543:5665   */\n      pop\n      jump\t// out\n\n    auxdata: 0xa264697066735822122098eb980717da9a16d3292b81ab94a988cf9a6815337c3f4ac22bfe35c8fee2a264736f6c63430008070033\n}\n",
				"bytecode": {
					"linkReferences": {},
					"object": "608060405234801561001057600080fd5b506109e5806100206000396000f3fe6080604052600436106100555760003560e01c80630adec93c1461005a57806312065fe01461008357806327176085146100ae578063a2fd040a146100b8578063d18a42e1146100f5578063f274c89714610134575b600080fd5b34801561006657600080fd5b50610081600480360381019061007c91906106ca565b610150565b005b34801561008f57600080fd5b50610098610228565b6040516100a59190610789565b60405180910390f35b6100b6610230565b005b3480156100c457600080fd5b506100df60048036038101906100da919061069d565b6103a6565b6040516100ec9190610789565b60405180910390f35b34801561010157600080fd5b5061011c6004803603810190610117919061069d565b6103f1565b60405161012b939291906107a4565b60405180910390f35b61014e600480360381019061014991906106f7565b61041b565b005b60008060003373ffffffffffffffffffffffffffffffffffffffff1673ffffffffffffffffffffffffffffffffffffffff16815260200190815260200160002060000154905060008060003373ffffffffffffffffffffffffffffffffffffffff1673ffffffffffffffffffffffffffffffffffffffff168152602001908152602001600020600001819055508173ffffffffffffffffffffffffffffffffffffffff166108fc829081150290604051600060405180830381858888f19350505050158015610223573d6000803e3d6000fd5b505050565b600047905090565b346000803373ffffffffffffffffffffffffffffffffffffffff1673ffffffffffffffffffffffffffffffffffffffff168152602001908152602001600020600001600082825461028191906107ec565b9250508190555060006040518060400160405280348152602001428152509050806000803373ffffffffffffffffffffffffffffffffffffffff1673ffffffffffffffffffffffffffffffffffffffff16815260200190815260200160002060020160008060003373ffffffffffffffffffffffffffffffffffffffff1673ffffffffffffffffffffffffffffffffffffffff16815260200190815260200160002060010154815260200190815260200160002060008201518160000155602082015181600101559050506000803373ffffffffffffffffffffffffffffffffffffffff1673ffffffffffffffffffffffffffffffffffffffff168152602001908152602001600020600101600081548092919061039e906108c4565b919050555050565b60008060008373ffffffffffffffffffffffffffffffffffffffff1673ffffffffffffffffffffffffffffffffffffffff168152602001908152602001600020600001549050919050565b60006020528060005260406000206000915090508060000154908060010154908060030154905083565b806000803373ffffffffffffffffffffffffffffffffffffffff1673ffffffffffffffffffffffffffffffffffffffff16815260200190815260200160002060000154101561049f576040517f08c379a000000000000000000000000000000000000000000000000000000000815260040161049690610769565b60405180910390fd5b806000803373ffffffffffffffffffffffffffffffffffffffff1673ffffffffffffffffffffffffffffffffffffffff16815260200190815260200160002060000160008282546104f09190610842565b9250508190555060006040518060400160405280348152602001428152509050806000803373ffffffffffffffffffffffffffffffffffffffff1673ffffffffffffffffffffffffffffffffffffffff16815260200190815260200160002060040160008060003373ffffffffffffffffffffffffffffffffffffffff1673ffffffffffffffffffffffffffffffffffffffff16815260200190815260200160002060030154815260200190815260200160002060008201518160000155602082015181600101559050506000803373ffffffffffffffffffffffffffffffffffffffff1673ffffffffffffffffffffffffffffffffffffffff168152602001908152602001600020600301600081548092919061060d906108c4565b91905055508273ffffffffffffffffffffffffffffffffffffffff166108fc839081150290604051600060405180830381858888f19350505050158015610658573d6000803e3d6000fd5b50505050565b60008135905061066d8161096a565b92915050565b60008135905061068281610981565b92915050565b60008135905061069781610998565b92915050565b6000602082840312156106b3576106b261093c565b5b60006106c18482850161065e565b91505092915050565b6000602082840312156106e0576106df61093c565b5b60006106ee84828501610673565b91505092915050565b6000806040838503121561070e5761070d61093c565b5b600061071c85828601610673565b925050602061072d85828601610688565b9150509250929050565b60006107446010836107db565b915061074f82610941565b602082019050919050565b610763816108ba565b82525050565b6000602082019050818103600083015261078281610737565b9050919050565b600060208201905061079e600083018461075a565b92915050565b60006060820190506107b9600083018661075a565b6107c6602083018561075a565b6107d3604083018461075a565b949350505050565b600082825260208201905092915050565b60006107f7826108ba565b9150610802836108ba565b9250827fffffffffffffffffffffffffffffffffffffffffffffffffffffffffffffffff038211156108375761083661090d565b5b828201905092915050565b600061084d826108ba565b9150610858836108ba565b92508282101561086b5761086a61090d565b5b828203905092915050565b60006108818261089a565b9050919050565b60006108938261089a565b9050919050565b600073ffffffffffffffffffffffffffffffffffffffff82169050919050565b6000819050919050565b60006108cf826108ba565b91507fffffffffffffffffffffffffffffffffffffffffffffffffffffffffffffffff8214156109025761090161090d565b5b600182019050919050565b7f4e487b7100000000000000000000000000000000000000000000000000000000600052601160045260246000fd5b600080fd5b7f6e6f7420656e6f756768206d6f6e657900000000000000000000000000000000600082015250565b61097381610876565b811461097e57600080fd5b50565b61098a81610888565b811461099557600080fd5b50565b6109a1816108ba565b81146109ac57600080fd5b5056fea264697066735822122098eb980717da9a16d3292b81ab94a988cf9a6815337c3f4ac22bfe35c8fee2a264736f6c63430008070033",
					"opcodes": "PUSH1 0x80 PUSH1 0x40 MSTORE CALLVALUE DUP1 ISZERO PUSH2 0x10 JUMPI PUSH1 0x0 DUP1 REVERT JUMPDEST POP PUSH2 0x9E5 DUP1 PUSH2 0x20 PUSH1 0x0 CODECOPY PUSH1 0x0 RETURN INVALID PUSH1 0x80 PUSH1 0x40 MSTORE PUSH1 0x4 CALLDATASIZE LT PUSH2 0x55 JUMPI PUSH1 0x0 CALLDATALOAD PUSH1 0xE0 SHR DUP1 PUSH4 0xADEC93C EQ PUSH2 0x5A JUMPI DUP1 PUSH4 0x12065FE0 EQ PUSH2 0x83 JUMPI DUP1 PUSH4 0x27176085 EQ PUSH2 0xAE JUMPI DUP1 PUSH4 0xA2FD040A EQ PUSH2 0xB8 JUMPI DUP1 PUSH4 0xD18A42E1 EQ PUSH2 0xF5 JUMPI DUP1 PUSH4 0xF274C897 EQ PUSH2 0x134 JUMPI JUMPDEST PUSH1 0x0 DUP1 REVERT JUMPDEST CALLVALUE DUP1 ISZERO PUSH2 0x66 JUMPI PUSH1 0x0 DUP1 REVERT JUMPDEST POP PUSH2 0x81 PUSH1 0x4 DUP1 CALLDATASIZE SUB DUP2 ADD SWAP1 PUSH2 0x7C SWAP2 SWAP1 PUSH2 0x6CA JUMP JUMPDEST PUSH2 0x150 JUMP JUMPDEST STOP JUMPDEST CALLVALUE DUP1 ISZERO PUSH2 0x8F JUMPI PUSH1 0x0 DUP1 REVERT JUMPDEST POP PUSH2 0x98 PUSH2 0x228 JUMP JUMPDEST PUSH1 0x40 MLOAD PUSH2 0xA5 SWAP2 SWAP1 PUSH2 0x789 JUMP JUMPDEST PUSH1 0x40 MLOAD DUP1 SWAP2 SUB SWAP1 RETURN JUMPDEST PUSH2 0xB6 PUSH2 0x230 JUMP JUMPDEST STOP JUMPDEST CALLVALUE DUP1 ISZERO PUSH2 0xC4 JUMPI PUSH1 0x0 DUP1 REVERT JUMPDEST POP PUSH2 0xDF PUSH1 0x4 DUP1 CALLDATASIZE SUB DUP2 ADD SWAP1 PUSH2 0xDA SWAP2 SWAP1 PUSH2 0x69D JUMP JUMPDEST PUSH2 0x3A6 JUMP JUMPDEST PUSH1 0x40 MLOAD PUSH2 0xEC SWAP2 SWAP1 PUSH2 0x789 JUMP JUMPDEST PUSH1 0x40 MLOAD DUP1 SWAP2 SUB SWAP1 RETURN JUMPDEST CALLVALUE DUP1 ISZERO PUSH2 0x101 JUMPI PUSH1 0x0 DUP1 REVERT JUMPDEST POP PUSH2 0x11C PUSH1 0x4 DUP1 CALLDATASIZE SUB DUP2 ADD SWAP1 PUSH2 0x117 SWAP2 SWAP1 PUSH2 0x69D JUMP JUMPDEST PUSH2 0x3F1 JUMP JUMPDEST PUSH1 0x40 MLOAD PUSH2 0x12B SWAP4 SWAP3 SWAP2 SWAP1 PUSH2 0x7A4 JUMP JUMPDEST PUSH1 0x40 MLOAD DUP1 SWAP2 SUB SWAP1 RETURN JUMPDEST PUSH2 0x14E PUSH1 0x4 DUP1 CALLDATASIZE SUB DUP2 ADD SWAP1 PUSH2 0x149 SWAP2 SWAP1 PUSH2 0x6F7 JUMP JUMPDEST PUSH2 0x41B JUMP JUMPDEST STOP JUMPDEST PUSH1 0x0 DUP1 PUSH1 0x0 CALLER PUSH20 0xFFFFFFFFFFFFFFFFFFFFFFFFFFFFFFFFFFFFFFFF AND PUSH20 0xFFFFFFFFFFFFFFFFFFFFFFFFFFFFFFFFFFFFFFFF AND DUP2 MSTORE PUSH1 0x20 ADD SWAP1 DUP2 MSTORE PUSH1 0x20 ADD PUSH1 0x0 KECCAK256 PUSH1 0x0 ADD SLOAD SWAP1 POP PUSH1 0x0 DUP1 PUSH1 0x0 CALLER PUSH20 0xFFFFFFFFFFFFFFFFFFFFFFFFFFFFFFFFFFFFFFFF AND PUSH20 0xFFFFFFFFFFFFFFFFFFFFFFFFFFFFFFFFFFFFFFFF AND DUP2 MSTORE PUSH1 0x20 ADD SWAP1 DUP2 MSTORE PUSH1 0x20 ADD PUSH1 0x0 KECCAK256 PUSH1 0x0 ADD DUP2 SWAP1 SSTORE POP DUP2 PUSH20 0xFFFFFFFFFFFFFFFFFFFFFFFFFFFFFFFFFFFFFFFF AND PUSH2 0x8FC DUP3 SWAP1 DUP2 ISZERO MUL SWAP1 PUSH1 0x40 MLOAD PUSH1 0x0 PUSH1 0x40 MLOAD DUP1 DUP4 SUB DUP2 DUP6 DUP9 DUP9 CALL SWAP4 POP POP POP POP ISZERO DUP1 ISZERO PUSH2 0x223 JUMPI RETURNDATASIZE PUSH1 0x0 DUP1 RETURNDATACOPY RETURNDATASIZE PUSH1 0x0 REVERT JUMPDEST POP POP POP JUMP JUMPDEST PUSH1 0x0 SELFBALANCE SWAP1 POP SWAP1 JUMP JUMPDEST CALLVALUE PUSH1 0x0 DUP1 CALLER PUSH20 0xFFFFFFFFFFFFFFFFFFFFFFFFFFFFFFFFFFFFFFFF AND PUSH20 0xFFFFFFFFFFFFFFFFFFFFFFFFFFFFFFFFFFFFFFFF AND DUP2 MSTORE PUSH1 0x20 ADD SWAP1 DUP2 MSTORE PUSH1 0x20 ADD PUSH1 0x0 KECCAK256 PUSH1 0x0 ADD PUSH1 0x0 DUP3 DUP3 SLOAD PUSH2 0x281 SWAP2 SWAP1 PUSH2 0x7EC JUMP JUMPDEST SWAP3 POP POP DUP2 SWAP1 SSTORE POP PUSH1 0x0 PUSH1 0x40 MLOAD DUP1 PUSH1 0x40 ADD PUSH1 0x40 MSTORE DUP1 CALLVALUE DUP2 MSTORE PUSH1 0x20 ADD TIMESTAMP DUP2 MSTORE POP SWAP1 POP DUP1 PUSH1 0x0 DUP1 CALLER PUSH20 0xFFFFFFFFFFFFFFFFFFFFFFFFFFFFFFFFFFFFFFFF AND PUSH20 0xFFFFFFFFFFFFFFFFFFFFFFFFFFFFFFFFFFFFFFFF AND DUP2 MSTORE PUSH1 0x20 ADD SWAP1 DUP2 MSTORE PUSH1 0x20 ADD PUSH1 0x0 KECCAK256 PUSH1 0x2 ADD PUSH1 0x0 DUP1 PUSH1 0x0 CALLER PUSH20 0xFFFFFFFFFFFFFFFFFFFFFFFFFFFFFFFFFFFFFFFF AND PUSH20 0xFFFFFFFFFFFFFFFFFFFFFFFFFFFFFFFFFFFFFFFF AND DUP2 MSTORE PUSH1 0x20 ADD SWAP1 DUP2 MSTORE PUSH1 0x20 ADD PUSH1 0x0 KECCAK256 PUSH1 0x1 ADD SLOAD DUP2 MSTORE PUSH1 0x20 ADD SWAP1 DUP2 MSTORE PUSH1 0x20 ADD PUSH1 0x0 KECCAK256 PUSH1 0x0 DUP3 ADD MLOAD DUP2 PUSH1 0x0 ADD SSTORE PUSH1 0x20 DUP3 ADD MLOAD DUP2 PUSH1 0x1 ADD SSTORE SWAP1 POP POP PUSH1 0x0 DUP1 CALLER PUSH20 0xFFFFFFFFFFFFFFFFFFFFFFFFFFFFFFFFFFFFFFFF AND PUSH20 0xFFFFFFFFFFFFFFFFFFFFFFFFFFFFFFFFFFFFFFFF AND DUP2 MSTORE PUSH1 0x20 ADD SWAP1 DUP2 MSTORE PUSH1 0x20 ADD PUSH1 0x0 KECCAK256 PUSH1 0x1 ADD PUSH1 0x0 DUP2 SLOAD DUP1 SWAP3 SWAP2 SWAP1 PUSH2 0x39E SWAP1 PUSH2 0x8C4 JUMP JUMPDEST SWAP2 SWAP1 POP SSTORE POP POP JUMP JUMPDEST PUSH1 0x0 DUP1 PUSH1 0x0 DUP4 PUSH20 0xFFFFFFFFFFFFFFFFFFFFFFFFFFFFFFFFFFFFFFFF AND PUSH20 0xFFFFFFFFFFFFFFFFFFFFFFFFFFFFFFFFFFFFFFFF AND DUP2 MSTORE PUSH1 0x20 ADD SWAP1 DUP2 MSTORE PUSH1 0x20 ADD PUSH1 0x0 KECCAK256 PUSH1 0x0 ADD SLOAD SWAP1 POP SWAP2 SWAP1 POP JUMP JUMPDEST PUSH1 0x0 PUSH1 0x20 MSTORE DUP1 PUSH1 0x0 MSTORE PUSH1 0x40 PUSH1 0x0 KECCAK256 PUSH1 0x0 SWAP2 POP SWAP1 POP DUP1 PUSH1 0x0 ADD SLOAD SWAP1 DUP1 PUSH1 0x1 ADD SLOAD SWAP1 DUP1 PUSH1 0x3 ADD SLOAD SWAP1 POP DUP4 JUMP JUMPDEST DUP1 PUSH1 0x0 DUP1 CALLER PUSH20 0xFFFFFFFFFFFFFFFFFFFFFFFFFFFFFFFFFFFFFFFF AND PUSH20 0xFFFFFFFFFFFFFFFFFFFFFFFFFFFFFFFFFFFFFFFF AND DUP2 MSTORE PUSH1 0x20 ADD SWAP1 DUP2 MSTORE PUSH1 0x20 ADD PUSH1 0x0 KECCAK256 PUSH1 0x0 ADD SLOAD LT ISZERO PUSH2 0x49F JUMPI PUSH1 0x40 MLOAD PUSH32 0x8C379A000000000000000000000000000000000000000000000000000000000 DUP2 MSTORE PUSH1 0x4 ADD PUSH2 0x496 SWAP1 PUSH2 0x769 JUMP JUMPDEST PUSH1 0x40 MLOAD DUP1 SWAP2 SUB SWAP1 REVERT JUMPDEST DUP1 PUSH1 0x0 DUP1 CALLER PUSH20 0xFFFFFFFFFFFFFFFFFFFFFFFFFFFFFFFFFFFFFFFF AND PUSH20 0xFFFFFFFFFFFFFFFFFFFFFFFFFFFFFFFFFFFFFFFF AND DUP2 MSTORE PUSH1 0x20 ADD SWAP1 DUP2 MSTORE PUSH1 0x20 ADD PUSH1 0x0 KECCAK256 PUSH1 0x0 ADD PUSH1 0x0 DUP3 DUP3 SLOAD PUSH2 0x4F0 SWAP2 SWAP1 PUSH2 0x842 JUMP JUMPDEST SWAP3 POP POP DUP2 SWAP1 SSTORE POP PUSH1 0x0 PUSH1 0x40 MLOAD DUP1 PUSH1 0x40 ADD PUSH1 0x40 MSTORE DUP1 CALLVALUE DUP2 MSTORE PUSH1 0x20 ADD TIMESTAMP DUP2 MSTORE POP SWAP1 POP DUP1 PUSH1 0x0 DUP1 CALLER PUSH20 0xFFFFFFFFFFFFFFFFFFFFFFFFFFFFFFFFFFFFFFFF AND PUSH20 0xFFFFFFFFFFFFFFFFFFFFFFFFFFFFFFFFFFFFFFFF AND DUP2 MSTORE PUSH1 0x20 ADD SWAP1 DUP2 MSTORE PUSH1 0x20 ADD PUSH1 0x0 KECCAK256 PUSH1 0x4 ADD PUSH1 0x0 DUP1 PUSH1 0x0 CALLER PUSH20 0xFFFFFFFFFFFFFFFFFFFFFFFFFFFFFFFFFFFFFFFF AND PUSH20 0xFFFFFFFFFFFFFFFFFFFFFFFFFFFFFFFFFFFFFFFF AND DUP2 MSTORE PUSH1 0x20 ADD SWAP1 DUP2 MSTORE PUSH1 0x20 ADD PUSH1 0x0 KECCAK256 PUSH1 0x3 ADD SLOAD DUP2 MSTORE PUSH1 0x20 ADD SWAP1 DUP2 MSTORE PUSH1 0x20 ADD PUSH1 0x0 KECCAK256 PUSH1 0x0 DUP3 ADD MLOAD DUP2 PUSH1 0x0 ADD SSTORE PUSH1 0x20 DUP3 ADD MLOAD DUP2 PUSH1 0x1 ADD SSTORE SWAP1 POP POP PUSH1 0x0 DUP1 CALLER PUSH20 0xFFFFFFFFFFFFFFFFFFFFFFFFFFFFFFFFFFFFFFFF AND PUSH20 0xFFFFFFFFFFFFFFFFFFFFFFFFFFFFFFFFFFFFFFFF AND DUP2 MSTORE PUSH1 0x20 ADD SWAP1 DUP2 MSTORE PUSH1 0x20 ADD PUSH1 0x0 KECCAK256 PUSH1 0x3 ADD PUSH1 0x0 DUP2 SLOAD DUP1 SWAP3 SWAP2 SWAP1 PUSH2 0x60D SWAP1 PUSH2 0x8C4 JUMP JUMPDEST SWAP2 SWAP1 POP SSTORE POP DUP3 PUSH20 0xFFFFFFFFFFFFFFFFFFFFFFFFFFFFFFFFFFFFFFFF AND PUSH2 0x8FC DUP4 SWAP1 DUP2 ISZERO MUL SWAP1 PUSH1 0x40 MLOAD PUSH1 0x0 PUSH1 0x40 MLOAD DUP1 DUP4 SUB DUP2 DUP6 DUP9 DUP9 CALL SWAP4 POP POP POP POP ISZERO DUP1 ISZERO PUSH2 0x658 JUMPI RETURNDATASIZE PUSH1 0x0 DUP1 RETURNDATACOPY RETURNDATASIZE PUSH1 0x0 REVERT JUMPDEST POP POP POP POP JUMP JUMPDEST PUSH1 0x0 DUP2 CALLDATALOAD SWAP1 POP PUSH2 0x66D DUP2 PUSH2 0x96A JUMP JUMPDEST SWAP3 SWAP2 POP POP JUMP JUMPDEST PUSH1 0x0 DUP2 CALLDATALOAD SWAP1 POP PUSH2 0x682 DUP2 PUSH2 0x981 JUMP JUMPDEST SWAP3 SWAP2 POP POP JUMP JUMPDEST PUSH1 0x0 DUP2 CALLDATALOAD SWAP1 POP PUSH2 0x697 DUP2 PUSH2 0x998 JUMP JUMPDEST SWAP3 SWAP2 POP POP JUMP JUMPDEST PUSH1 0x0 PUSH1 0x20 DUP3 DUP5 SUB SLT ISZERO PUSH2 0x6B3 JUMPI PUSH2 0x6B2 PUSH2 0x93C JUMP JUMPDEST JUMPDEST PUSH1 0x0 PUSH2 0x6C1 DUP5 DUP3 DUP6 ADD PUSH2 0x65E JUMP JUMPDEST SWAP2 POP POP SWAP3 SWAP2 POP POP JUMP JUMPDEST PUSH1 0x0 PUSH1 0x20 DUP3 DUP5 SUB SLT ISZERO PUSH2 0x6E0 JUMPI PUSH2 0x6DF PUSH2 0x93C JUMP JUMPDEST JUMPDEST PUSH1 0x0 PUSH2 0x6EE DUP5 DUP3 DUP6 ADD PUSH2 0x673 JUMP JUMPDEST SWAP2 POP POP SWAP3 SWAP2 POP POP JUMP JUMPDEST PUSH1 0x0 DUP1 PUSH1 0x40 DUP4 DUP6 SUB SLT ISZERO PUSH2 0x70E JUMPI PUSH2 0x70D PUSH2 0x93C JUMP JUMPDEST JUMPDEST PUSH1 0x0 PUSH2 0x71C DUP6 DUP3 DUP7 ADD PUSH2 0x673 JUMP JUMPDEST SWAP3 POP POP PUSH1 0x20 PUSH2 0x72D DUP6 DUP3 DUP7 ADD PUSH2 0x688 JUMP JUMPDEST SWAP2 POP POP SWAP3 POP SWAP3 SWAP1 POP JUMP JUMPDEST PUSH1 0x0 PUSH2 0x744 PUSH1 0x10 DUP4 PUSH2 0x7DB JUMP JUMPDEST SWAP2 POP PUSH2 0x74F DUP3 PUSH2 0x941 JUMP JUMPDEST PUSH1 0x20 DUP3 ADD SWAP1 POP SWAP2 SWAP1 POP JUMP JUMPDEST PUSH2 0x763 DUP2 PUSH2 0x8BA JUMP JUMPDEST DUP3 MSTORE POP POP JUMP JUMPDEST PUSH1 0x0 PUSH1 0x20 DUP3 ADD SWAP1 POP DUP2 DUP2 SUB PUSH1 0x0 DUP4 ADD MSTORE PUSH2 0x782 DUP2 PUSH2 0x737 JUMP JUMPDEST SWAP1 POP SWAP2 SWAP1 POP JUMP JUMPDEST PUSH1 0x0 PUSH1 0x20 DUP3 ADD SWAP1 POP PUSH2 0x79E PUSH1 0x0 DUP4 ADD DUP5 PUSH2 0x75A JUMP JUMPDEST SWAP3 SWAP2 POP POP JUMP JUMPDEST PUSH1 0x0 PUSH1 0x60 DUP3 ADD SWAP1 POP PUSH2 0x7B9 PUSH1 0x0 DUP4 ADD DUP7 PUSH2 0x75A JUMP JUMPDEST PUSH2 0x7C6 PUSH1 0x20 DUP4 ADD DUP6 PUSH2 0x75A JUMP JUMPDEST PUSH2 0x7D3 PUSH1 0x40 DUP4 ADD DUP5 PUSH2 0x75A JUMP JUMPDEST SWAP5 SWAP4 POP POP POP POP JUMP JUMPDEST PUSH1 0x0 DUP3 DUP3 MSTORE PUSH1 0x20 DUP3 ADD SWAP1 POP SWAP3 SWAP2 POP POP JUMP JUMPDEST PUSH1 0x0 PUSH2 0x7F7 DUP3 PUSH2 0x8BA JUMP JUMPDEST SWAP2 POP PUSH2 0x802 DUP4 PUSH2 0x8BA JUMP JUMPDEST SWAP3 POP DUP3 PUSH32 0xFFFFFFFFFFFFFFFFFFFFFFFFFFFFFFFFFFFFFFFFFFFFFFFFFFFFFFFFFFFFFFFF SUB DUP3 GT ISZERO PUSH2 0x837 JUMPI PUSH2 0x836 PUSH2 0x90D JUMP JUMPDEST JUMPDEST DUP3 DUP3 ADD SWAP1 POP SWAP3 SWAP2 POP POP JUMP JUMPDEST PUSH1 0x0 PUSH2 0x84D DUP3 PUSH2 0x8BA JUMP JUMPDEST SWAP2 POP PUSH2 0x858 DUP4 PUSH2 0x8BA JUMP JUMPDEST SWAP3 POP DUP3 DUP3 LT ISZERO PUSH2 0x86B JUMPI PUSH2 0x86A PUSH2 0x90D JUMP JUMPDEST JUMPDEST DUP3 DUP3 SUB SWAP1 POP SWAP3 SWAP2 POP POP JUMP JUMPDEST PUSH1 0x0 PUSH2 0x881 DUP3 PUSH2 0x89A JUMP JUMPDEST SWAP1 POP SWAP2 SWAP1 POP JUMP JUMPDEST PUSH1 0x0 PUSH2 0x893 DUP3 PUSH2 0x89A JUMP JUMPDEST SWAP1 POP SWAP2 SWAP1 POP JUMP JUMPDEST PUSH1 0x0 PUSH20 0xFFFFFFFFFFFFFFFFFFFFFFFFFFFFFFFFFFFFFFFF DUP3 AND SWAP1 POP SWAP2 SWAP1 POP JUMP JUMPDEST PUSH1 0x0 DUP2 SWAP1 POP SWAP2 SWAP1 POP JUMP JUMPDEST PUSH1 0x0 PUSH2 0x8CF DUP3 PUSH2 0x8BA JUMP JUMPDEST SWAP2 POP PUSH32 0xFFFFFFFFFFFFFFFFFFFFFFFFFFFFFFFFFFFFFFFFFFFFFFFFFFFFFFFFFFFFFFFF DUP3 EQ ISZERO PUSH2 0x902 JUMPI PUSH2 0x901 PUSH2 0x90D JUMP JUMPDEST JUMPDEST PUSH1 0x1 DUP3 ADD SWAP1 POP SWAP2 SWAP1 POP JUMP JUMPDEST PUSH32 0x4E487B7100000000000000000000000000000000000000000000000000000000 PUSH1 0x0 MSTORE PUSH1 0x11 PUSH1 0x4 MSTORE PUSH1 0x24 PUSH1 0x0 REVERT JUMPDEST PUSH1 0x0 DUP1 REVERT JUMPDEST PUSH32 0x6E6F7420656E6F756768206D6F6E657900000000000000000000000000000000 PUSH1 0x0 DUP3 ADD MSTORE POP JUMP JUMPDEST PUSH2 0x973 DUP2 PUSH2 0x876 JUMP JUMPDEST DUP2 EQ PUSH2 0x97E JUMPI PUSH1 0x0 DUP1 REVERT JUMPDEST POP JUMP JUMPDEST PUSH2 0x98A DUP2 PUSH2 0x888 JUMP JUMPDEST DUP2 EQ PUSH2 0x995 JUMPI PUSH1 0x0 DUP1 REVERT JUMPDEST POP JUMP JUMPDEST PUSH2 0x9A1 DUP2 PUSH2 0x8BA JUMP JUMPDEST DUP2 EQ PUSH2 0x9AC JUMPI PUSH1 0x0 DUP1 REVERT JUMPDEST POP JUMP INVALID LOG2 PUSH5 0x6970667358 0x22 SLT KECCAK256 SWAP9 0xEB SWAP9 SMOD OR 0xDA SWAP11 AND 0xD3 0x29 0x2B DUP2 0xAB SWAP5 0xA9 DUP9 0xCF SWAP11 PUSH9 0x15337C3F4AC22BFE35 0xC8 INVALID 0xE2 LOG2 PUSH5 0x736F6C6343 STOP ADDMOD SMOD STOP CALLER "
				},
				"gasEstimates": {
					"creation": {
						"codeDepositCost": "506600",
						"executionCost": "543",
						"totalCost": "507143"
					},
					"external": {
						"balanceReceived(address)": "infinite",
						"depsoitMoney()": "infinite",
						"getBalance()": "339",
						"getBalanceAtAddress(address)": "2891",
						"withdrawAllMoney(address)": "infinite",
						"withdrawMoney(address,uint256)": "infinite"
					}
				},
				"methodIdentifiers": {
					"balanceReceived(address)": "d18a42e1",
					"depsoitMoney()": "27176085",
					"getBalance()": "12065fe0",
					"getBalanceAtAddress(address)": "a2fd040a",
					"withdrawAllMoney(address)": "0adec93c",
					"withdrawMoney(address,uint256)": "f274c897"
				}
			},
			"storageLayout": {
				"storage": [
					{
						"astId": 28,
						"contract": "TestStruct.sol:TestStruct",
						"label": "balanceReceived",
						"offset": 0,
						"slot": "0",
						"type": "t_mapping(t_address,t_struct(Balance)23_storage)"
					}
				],
				"types": {
					"t_address": {
						"encoding": "inplace",
						"label": "address",
						"numberOfBytes": "20"
					},
					"t_mapping(t_address,t_struct(Balance)23_storage)": {
						"encoding": "mapping",
						"key": "t_address",
						"label": "mapping(address => struct TestStruct.Balance)",
						"numberOfBytes": "32",
						"value": "t_struct(Balance)23_storage"
					},
					"t_mapping(t_uint256,t_struct(Transaction)6_storage)": {
						"encoding": "mapping",
						"key": "t_uint256",
						"label": "mapping(uint256 => struct TestStruct.Transaction)",
						"numberOfBytes": "32",
						"value": "t_struct(Transaction)6_storage"
					},
					"t_struct(Balance)23_storage": {
						"encoding": "inplace",
						"label": "struct TestStruct.Balance",
						"members": [
							{
								"astId": 8,
								"contract": "TestStruct.sol:TestStruct",
								"label": "totalBalance",
								"offset": 0,
								"slot": "0",
								"type": "t_uint256"
							},
							{
								"astId": 10,
								"contract": "TestStruct.sol:TestStruct",
								"label": "numDeposits",
								"offset": 0,
								"slot": "1",
								"type": "t_uint256"
							},
							{
								"astId": 15,
								"contract": "TestStruct.sol:TestStruct",
								"label": "deposits",
								"offset": 0,
								"slot": "2",
								"type": "t_mapping(t_uint256,t_struct(Transaction)6_storage)"
							},
							{
								"astId": 17,
								"contract": "TestStruct.sol:TestStruct",
								"label": "numWithdrawals",
								"offset": 0,
								"slot": "3",
								"type": "t_uint256"
							},
							{
								"astId": 22,
								"contract": "TestStruct.sol:TestStruct",
								"label": "withdrawals",
								"offset": 0,
								"slot": "4",
								"type": "t_mapping(t_uint256,t_struct(Transaction)6_storage)"
							}
						],
						"numberOfBytes": "160"
					},
					"t_struct(Transaction)6_storage": {
						"encoding": "inplace",
						"label": "struct TestStruct.Transaction",
						"members": [
							{
								"astId": 3,
								"contract": "TestStruct.sol:TestStruct",
								"label": "amount",
								"offset": 0,
								"slot": "0",
								"type": "t_uint256"
							},
							{
								"astId": 5,
								"contract": "TestStruct.sol:TestStruct",
								"label": "timestamps",
								"offset": 0,
								"slot": "1",
								"type": "t_uint256"
							}
						],
						"numberOfBytes": "64"
					},
					"t_uint256": {
						"encoding": "inplace",
						"label": "uint256",
						"numberOfBytes": "32"
					}
				}
			},
			"userdoc": {
				"kind": "user",
				"methods": {},
				"version": 1
			}
		}
	}
}